:020000040000FA
:1000000000500020C50A0000EB0A0000570A00005B
:10001000E90A0000E90A0000E90A00000000000007
:10002000000000000000000000000000E90A0000DD
:10003000E90A000000000000E90A0000E90A0000E7
:10004000E90A0000E90A0000E90A0000E90A0000E4
:10005000E90A0000E90A0000E90A0000E90A0000D4
:10006000E90A0000E90A0000E90A0000E90A0000C4
:10007000E90A0000E90A0000E90A0000E90A0000B4
:10008000E90A0000E90A0000E90A0000E90A0000A4
:10009000E90A0000E90A0000E90A0000E90A000094
:1000A000E90A0000E90A0000E90A0000E90A000084
:1000B000E90A0000E90A0000E90A0000E90A000074
:1000C000E90A0000E90A00002DE9F041404C444DE6
:1000D0008046C8F38140401E02D0401E2AD025E051
:1000E000284620300168880C20D24FF480402060E0
:1000F0003848D0F802204B0AC1F3033703F08003DD
:1001000022F08F02134347EA0302C0F80220D0F81E
:1001100001300E1266F30303C0F80130026801F0EB
:10012000E70722F0E70247EA020102E04FF0004150
:10013000204601602C4E301D0068C0F3C0070FB987
:100140004020A0624FF40070206400F0DDFB40F01E
:10015000300084F8C800C8F3815040B3401E03D07B
:10016000401E1FD002211EE0012000F005FB0746C3
:100170000420394600F05CFA042000F0FDFA8742C2
:10018000FAD1361F366826F07F4000F0C7FA1248D1
:100190000068036807214FF06022300E98474FF443
:1001A000806020600321042000F042FA06E0042071
:1001B000012100F03DFA094800F0B0FA2846094F45
:1001C000006800F03F0084F8CB0F3868BDE8F0818C
:1001D00040A00C400A600840B4010010BD37860002
:1001E0006C1300502C200940AC3F00507CB50546F4
:1001F000084600F0E9F9364E02461821304600F074
:10020000A5FA00F01FFB3449103909684C6840F228
:10021000FF32002380B22C2100903046A04700F02E
:100220007BFB1C210246304600F090FA00F0FCFAFD
:1002300002461421304600F089FA00F029FB0246FC
:100240001021304600F082FA284600F089F9024673
:100250000C21304600F07AFA284600F001FB1D4CD4
:10026000400040F020002070284600F005FB40F0E0
:1002700010002070284600F0ABFA024628213046D4
:1002800000F064FA284600F00FFB400040F06000E8
:10029000E070284600F014FBC00040F0800004F835
:1002A000080C284600F018FB800040F47C40A4F8BD
:1002B0009300284600F076FA02460821304600F006
:1002C00045FA4FF48000A4F2091108607CBDC046D5
:1002D00000A00C4049A10C40B4010010274A2DE9B0
:1002E000F04180460125264815600768002FFCD0A4
:1002F000244CC02025492060081F03689B0806D2B3
:1003000050F8040C204B000C40F0F0001870002056
:1003100010630E68304600F097F840463146FFF70C
:1003200065FF1B49886D40F21E226FF31F40824219
:1003300015D90868020E12F00F0F02F00F01C0F37A
:10034000034018BF491E072805D006280EBF072006
:10035000801C00F00F0041EA00110E480170304689
:10036000FFF7B2FE0C480068C168022088474020B1
:1003700020600A4F3D60BDE8F081C0461010094082
:100380009402224300600C4056620840B43F005083
:10039000BC12005002600840A001001094046042AA
:1003A000264838B560300468B4F1FF3F08BF002428
:1003B00000F09EFA2248234B0025012110380560E9
:1003C00003F15C0001601448016000F061F913481A
:1003D000006820B1124800682046FFF77FFF1148EF
:1003E00011490560114C0A686FF35B4244EA020050
:1003F00008600F490868C0F30130012806D10A6877
:100400000C48104040F400320A6008600A4908684D
:100410000028FCD138BDC04608220443800128438F
:10042000000120438C21084048200340000039018E
:1004300004000940FFFFFCFC0C006842BC120050A5
:100440009404604200600C4070B5234C234D064676
:10045000B00E11D2700E0FD3802020744FF6D80149
:10046000A4F85110207000F041F8D0352868C0F38E
:100470000420162806DB04E02868C0F30460162870
:1004800000DB203800EB2670401C162805DA10F13E
:100490000A0FB8BF6FF0090000E01520104D00F002
:1004A0001F0040F4F850A4F859002868800803D2CF
:1004B0000C490020086001E046F040660A49F00E51
:1004C000B50E80F0010000F00100086085F0010029
:1004D00000F00100886070BD15620840B81200503D
:1004E0000000094094042A4300002043184870B5D6
:1004F0000068C0F304601628A8BF2038154B0146D9
:10050000187800F01F001628A8BF203881421ED09E
:10051000114E124C0022012532600A1A022A05DC13
:1005200012F1020FB8BF6FF0010200E002221018B2
:10053000226800F01F0242F4F852A3F866208142BC
:100540002560EAD12068256020683560206870BD8C
:100550008813005006620840980020432C20094070
:1005600038B51849164D0446143909686868C1F34E
:100570000342C1F30353400812D22868050513EB68
:10058000257303D4102BA8BF0F2300E00023000421
:1005900012EB207203D4102AA8BF0F2200E0002221
:1005A00042EA031201F47F4001F0FF03222C40EAEB
:1005B000024243EA020024BF01F08041084338BDF3
:1005C000AC3F00508C1300500146184880B53C38B1
:1005D00000688A0CC0F38367C0F38F2022D241F3F6
:1005E000072100290BD54A420021400805D17F0888
:1005F00006BF0127381C4FF6FF70521EF5D10029A7
:1006000010DD4FF6FF72400040F00100824207D239
:10061000780040F001070F2F92BF01200F27101C18
:10062000491EF0D140EA074080BDC0468C130050FF
:100630002DE9FC41144C154F06468846700809D335
:1006400020684568002101220B461FFA88F00090BF
:100650003846A847B00809D320684568002102221F
:1006600001231FFA88F000903846A847F00809D304
:1006700020681FFA88F600210C22022344680096A5
:100680003846A047BDE8FC81A401001000A00C4042
:100690000F4908680028FCD1104A131D0D4918683D
:1006A00020F0030001430C480068C0080CD2106819
:1006B00010F0030F0AD041F003001860106800F03A
:1006C00003000328FAD101E041F0010119607047ED
:1006D0000C00684204000020B03F0050004003407E
:1006E0000D4908B5D1F878020B68020F03F0FF033B
:1006F000802B28BF002300F07BF801464FF0FF302D
:10070000012907D1111C04D0891E04BF143358B22B
:1007100008BD0A2008BDC046A010005009490204C7
:1007200080B5120C41F8082CC0F3074041F8040CC6
:100730000120086004480768002FFCD000200860F2
:1007400080BDC04644600C4084088C43B0B515465B
:100750000C1800F0E9F8002700B90127054A3946CE
:1007600010680028FCD025600120106009B100F05D
:10077000E1F8B0BD00800C4002460849084810B5B9
:10078000042A07BF4FF0C0421D234FF080521C23A4
:100790000968CC683421A04710BDC046A4010010F0
:1007A00000A00C40202838BF07480CD307480C3065
:1007B000016808038215920500F47C1001F00F0116
:1007C000104340EA0130704700803F408C130050D6
:1007D000202838BF002008D3044810300068C10C1E
:1007E00001F44071C0F384500843704788130050EF
:1007F000054800684BF6BE110001B1EB104F14BF65
:100800004FF0FF30012070471813005008B5044B1B
:100810001B689B699847034A0021116008BDC046C8
:10082000A801001084046042054818380168034894
:10083000084001F07C4108437047C046FCFCFC00C6
:100840008C1300500549383908680968C0F38700DF
:1008500001F0030140EA01207047C04688130050B0
:10086000222804D303480068C0F3007070470120B9
:100870007047C0468C130050222804D303480068F8
:10088000C0F34070704701207047C0468C13005081
:1008900004481C38006800F47C010004000C084384
:1008A0007047C0468C130050202805D303480C30F5
:1008B0000068C0F301507047002070478C1300504F
:1008C000222804D303480068C0F3C06070470020AA
:1008D0007047C0468C130050222805D30348001DE2
:1008E0000068C0F3455070470020704788130050DF
:1008F00008B5FFF77DFF012803D1FFF7F1FE1428AB
:1009000000DAFEE708BD00000248001D0068C0F3E1
:10091000C14070478813005002480C380068C0F38B
:100920000D00704788130050EFF3108072B67047C7
:1009300000207047EFF3108062B6704700207047C8
:10094000002A4AD05FEA000C8B071CD1830722D112
:10095000102A08D370B4103A78C978C0103AFBD284
:1009600070BC103238D0042A2CD3082A05D30C2AA4
:1009700024BF08C908C008C908C008C908C0920730
:100980002AD0920F22E00B780370491C401C521EA3
:1009900022D08B07F7D1C30714D18307D8D0121FF9
:1009A00012D308C903801B0C4380001D121FF8D20C
:1009B0000AE008C903701B0A43701B0A83701B0AF4
:1009C000C370001D121FF4D2121D05D00B780370E6
:1009D000491C401C521EF9D1604670470022134644
:1009E0000A46194671B510F0030F0BD0002A82BFDA
:1009F00000F8011BB2F1010210F0030FF6D1002A3A
:100A000008BF71BD11F0FF0141EA0121042A18D38A
:100A100041EA0141082A0FD30E46102A08D30C469A
:100A20000D46B2F10F0312F00F0272C0103BFCD85A
:100A300012F0080F18BF42C012F0040F18BF40F8A0
:100A4000041B12F0020F18BF20F8021B12F0010F56
:100A500018BF017071BDFEE7B0B50C480C4DA8423F
:100A600010D00C480C4CA0420CD0001BC71054F8FE
:100A7000040B10F8011B55F8212054F8041B904773
:100A80007F1EF4D100BF00BFB0BDC046FC0A00000D
:100A9000F80A0000040B0000FC0A0000084808B532
:100AA00080F3088800BF00BF00F01AF808B1FFF714
:100AB000D3FF00201EF018FB012000F013F808BD42
:100AC0000050002008B5FFF76BFCFFF7E7BFFFF70A
:100AD000C2FF08BDD0F8032008460021FFF782BFFF
:0C0AE0000120704700BFFEE7FEE7FEE7C4
:100AF0000000000000100000D50A0000F00A00000D
:040B000000000020D1
:10101000004C002039920000C9AB0000C9AB0000B1
:10102000C9AB0000C9AB0000C9AB0000C9AB0000F0
:10103000C9AB0000C9AB0000C9AB0000C9AB0000E0
:10104000C9AB0000C9AB000081B000002DE9FE4F24
:10105000DD4981460122A1F130000260D8480768CD
:10106000002FFCD0D74AE34EC027D848D84B176092
:101070003268920808D2324652F8042C03F1410437
:10108000120C42F0F00222704FF0000A8346C1F8C1
:1010900000A0DFF88CC3DBF80810E04F0191880E48
:1010A00043D2480E41D3802018744FF6D802A3F8DB
:1010B000512018703868C0F30464162CA8BF203C77
:1010C0001E460F3E307800F01F001628A8BF2038BB
:1010D000844223D0624602F1980EE44ACEF800A082
:1010E000251A022D05DC15F1020FB8BF6FF00105BE
:1010F00000E002254019156800F01F05844245F400
:10110000F855A6F866504FF001051560E8D1106853
:101110002E4616601068CEF80050106838460068F9
:10112000C0F30420162808DB06E0A7F1D000006811
:10113000C0F30460162800DB203800EB2170401C4F
:10114000162805DA10F10A0FB8BF6FF0090000E0A9
:101150001520D54E00F01F0040F4F850A3F85900B8
:10116000306880083ABFD148C0F800A041F0406123
:101170006246C80E8E0E80F0010000F00100106083
:1011800086F0010000F001009060019806F052FE28
:101190000146182008F066FCA7F13806CD4C3068EF
:1011A0003568A4F10408C0F3870105F0030041EAA3
:1011B0000021D8F80400C04D446840F2FF32534685
:1011C00088B22C21009028464038A047F06AC0F32E
:1011D0000D011C2008F046FCB549706A014000F082
:1011E0007C400143142008F03DFC316A01F47C008E
:1011F0000904090C0143102008F034FC7D4AB06A50
:101200001268C0F30351C0F30344520813D2DBF851
:101210000020130511EB237103D41029A8BF0F215F
:1012200000E05146120414EB227403D4102CA8BF22
:101230000F2400E0544644EA011400F47F4200F019
:10124000FF01B9F1220F42EA044241EA020124BF40
:1012500000F0804001430C2008F004FC954CB9F1EB
:10126000220F32BF01202068C0F30070B9F1220FB5
:101270004FEA400040F0200085F8090126BF2068B1
:10128000C0F3407001208D4EB9F1200F40F01000E6
:1012900085F8090138BF514606D33168C80C00F4FF
:1012A0004070C1F384510143282008F0DBFBB9F101
:1012B000200F26BF3068C0F301505046B9F1220F0D
:1012C0004FEA400040F0600085F80C0126BF20681E
:1012D000C0F3C0605046B9F1220F4FEAC00040F0A1
:1012E000800085F8010126BF2068C0F345505046B4
:1012F000B9F1200F4FEA800040F47C40A5F89C0132
:1013000038BF6F490AD3306801038A15920501F48A
:101310007C1100F00F00114341EA0031082008F071
:10132000A1FBCC3F4FF480002860664AB86D40F2C4
:101330001E216FF31F40814216D93868030E03F057
:101340000F0113F00F0FC0F3034018BF491E072809
:1013500005D006280EBF0720801C00F00F0041EAD0
:101360000011A2F108000170DDF804C0CCF3814740
:101370007F1E02D07F1E31D02CE02068810C29D244
:101380004FF480412960D2F80210430AC0F30337BA
:1013900003F0800321F08F010B4347EA0301C2F8F9
:1013A0000210D2F80130060A66F30303C2F80130D6
:1013B000116800F0E70721F0E70147EA01000CE0BF
:1013C0009402224300600C4040100940AC3F0050A2
:1013D000156208404FF000402A461060054800683A
:1013E000C0F3C0070FB94020A8624FF40070286412
:1013F00002E0C046B03F005020684027C0F3C14023
:1014000040F0300085F8C800CCF3815080B3401E16
:1014100008D0FFE7401E23D0022122E088130050AD
:1014200000002043012008F045FF06460420314615
:1014300006F0C8FD042008F03DFF8642FAD122489C
:10144000066826F07F4008F0F9FCD8F8140003681D
:1014500007214FF06022300E98474FF480602860DB
:101460000321042006F0AEFD09E0C0462C2009400F
:101470000420012106F0A6FD144808F0DFFC203C02
:10148000206800F03F0085F8CB0FD8F80030124EEE
:10149000D96830680220884710480D4C0760012148
:1014A0002160BDE8FE8FC0460000094094042A4335
:1014B000FCFCFC008C13005040A00C409813005022
:1014C00000803F400A600840A83F0050BD378600BA
:1014D00094046042A40100102C20094000600C40DC
:1014E0002DE9F84F68460AF0C8FA032069468DF8DE
:1014F00000004FF0004006F0E5FEBE4D6946286250
:101500004FF0804006F0DEFE686220B10021BBA3F0
:101510000A4609F05BF8286A20B10021BFA30A46F9
:1015200009F054F805F13C0005F1280105F0D4F963
:10153000A86110B9BEA009F095FD08F097FFDFF88B
:10154000B882E14CE148E24FA8F11D062060306806
:101550006760C0084FD2DF494CC904F15C004CC041
:101560004CC94CC00EC9012780E80E00FF23DA4E9B
:10157000E16EB4F86A20C6F8AB3FD848C6F8FF7FE2
:1015800005F010F9A06F804742F60B3442F22B00B1
:1015900046F8550CD24946F8514C4FF480730B6015
:1015A000002246F8212C46F83D7CC6F8B37FC6F8E9
:1015B000F37FD6F8F30F0AF0B1F94746A7F11D0201
:1015C000116841F004011160C64A116821F0F05120
:1015D00041F0345111600AF07AFAD7F8FF0F08F0A1
:1015E0002BFB0AF05FFA0AF069FA08F03FFB0AF0F9
:1015F0005CFA0AF066FA0AF091F9BB49A1F10C0312
:101600001A685B68120442EA13420832CA604FF457
:1016100080370F610A6842F4A0220A60D1F8F02FE7
:1016200022F01F0242F02502C1F8F02F0AF04FFA13
:10163000002008F035FB4FF001084FF47F61AC4EFD
:101640000180AA49A0F8028040460E6004F066FFBF
:10165000AC49A84A28690968B2FBF1F10AF09BFA83
:10166000286909F0BBFE05F1300005F1480105F0DD
:1016700033F9686118B979A009F0F4FC68699E49EA
:101680000AF00AF910B17DA009F0ECFC9E4C9C4ECA
:101690004FF0000B6BE0002869D0A269E1888A4214
:1016A00018D1A168491CA160491E032998BF521E88
:1016B0000CD95846607008F0ADFE584608F0C0FEE0
:1016C000404608F0D3FB4FF0FF326078E168A2613A
:1016D000491CE16000284AD0E788A088B8423CDD78
:1016E000864800680168A761A9B106208847011CE7
:1016F00011D00420087081F801B08F703B12CB70BC
:101700005A4681F804807D4F4A713868436813B1A6
:101710002046062298472878B4F806A0B4F804902A
:10172000E76801280CD05946286A85F800805EA336
:101730000A4608F04BFF286A59460A460AF094F810
:10174000A5F806A0A5F80890E868EF61022106F068
:1017500087F8502008F074FE06E0584608F086FB33
:1017600084F801B084F80280A02008F053FEE868F5
:101770004FF0FF325946134603F0B0FD0746780894
:1017800026D3D5F818A0062009F052FED94600B994
:10179000C14606214A46504608F04CF87068B5F834
:1017A00004904FF0FF3104F08FFB4146B068A6F87B
:1017B000029006F055F8F0684FF0FF3104F084FB1A
:1017C0007078012802D0706806F01CFD01F040FF1F
:1017D000B80801D301F03CFFF808C8D3A06A07425B
:1017E000C5D0A178607800293FF455AF09F05CFEC0
:1017F000BDE8F88F500B00202D1009405761697427
:10180000696E6720666F7220534345204144432030
:1018100072656164696E672E2E2E00C0576169740F
:10182000696E6720666F72204144432E2E2E00C0E1
:101830004572726F7220696E697469616C697A6948
:101840006E6720626F61726420332E335620646F9E
:101850006D61696E2070696E730A00C04572726FA7
:101860007220696E697469616C697A696E67206259
:101870007574746F6E2070696E730A004572726FB2
:1018800072207265676973746572696E672062752C
:1018900074746F6E2063616C6C6261636B2066753B
:1018A0006E6374696F6E00C057616974696E6720FA
:1018B000666F72204E6F64652046572075706461B4
:1018C00074652E2E2E00C046901700201F7A00004F
:1018D000FD860000A4C9000055500C4000000E40D9
:1018E00000100E400030094014200940EC36002062
:1018F000BDB4000080C3C90165A70000FC19002029
:101900002005002040CE0000781600202DE9F84385
:10191000DFF828830F460446F80B80F07481DFF867
:101920001893B80F80F02D81C54DB80880F0228142
:10193000F80A80F00081B80B80F0EE80780B80F020
:10194000C080380C80F0AF803809C0F07F8108205B
:1019500009F0B4FF002840F0A180802009F0AEFF1C
:10196000002840F09B80684605F002F8012803D16A
:101970000098002800F0928000240125E0B209F0D0
:1019800075FD48B1867A3EB1857290F9090005FA75
:1019900000F0C0B208F0E8F8641C032CEED34C460B
:1019A00003202075606878300AF0B5F8AB4800264F
:1019B00001680660AA4950F8082CB146324640F842
:1019C000089C04F138000AF0B0F8304609F06CF8D1
:1019D00009F01AFD0146A268E069891A090BC1F1F4
:1019E000FF3282422CBF08444FF0FF30E06194F890
:1019F00020601EB12169B0EBC12F1FD909F0B4F8E6
:101A0000494600B12946081C14D0964840F6090101
:101A1000018049464180427B65F303024273027BA9
:101A200061F303020273416009F008FE418811F47A
:101A3000406FFBD084F820504946E16107F046FE34
:101A400089484D4649460560022008F0FFFE022005
:101A500008F070F8112004F001FB207818B96068D4
:101A600040300AF06AF88148007810B90E2004F07E
:101A7000F5FA94F8210020B184F82150052008F0EF
:101A800059F87B48B4F98C60A061B4F98E102575C3
:101A90008E4214BF0220072005F070FC27F00807D3
:101AA00006F0F0FAD2E00835296839B1C8684088F4
:101AB0000028FBD0C86840880128F7D027F40047E9
:101AC000EEE707F0D3FE38B12046A4696FF48071C9
:101AD00000224FF00073A04768494C46002204F1F1
:101AE00038000AF022F80220E668207509F08CFC24
:101AF000D4F81C21636804F58E719A4214BF012248
:101B0000002226B1801B01EB8206030BB36000208C
:101B100027F48057E060C3E74046066846B1B068E6
:101B200030B13069B6F93410B46800222023A047E0
:101B300027F400578AE009F0F2FF4C460546206F73
:101B4000064688B1606810B1783009F0E4FF30696A
:101B5000606009F059FCE06046484FF40061A06104
:101B600004F1B40009F0F1FF284609F0B0FF27F4B2
:101B700080676BE002F042FA286808B927F0020794
:101B800064E009F0CCFF0546042008F093FBC8B1DF
:101B9000207CB8B148460830006898B1064609F084
:101BA00033FCE168801BE060000B8842E06002D2F9
:101BB00040184008E06040F6C41181422CBFB0F5E7
:101BC000967FE160284609F082FF07F04FFE80B162
:101BD000A56920466FF4807100224FF00073A8477A
:101BE00025480068002808BF47F0020701D006F02A
:101BF00049FA2046646900214FF080630A46A047F5
:101C000027F0005722E009F08AFF41460E68CEB166
:101C1000B16A890816D2B56AB16AA943B16209F0FE
:101C200056FFB06880B17DB13069B6F93410B46840
:101C30002A460023A04707E0B02C0020382D0020C2
:101C4000282D002009F043FF27F4804727B14046A4
:101C500039462C3009F079FFBDE8F88314100440B0
:101C60007D830000A8360020000004607ECD0000C7
:101C70009155000075420000202D002041410000D8
:101C8000BA482DE9F84F0025B94CB749056094F8DA
:101C9000E200002800F06381012800F02F81B54E9A
:101CA00002283CD0032840F05A8151F8250CD4F882
:101CB000B8100029A0F5C060C4F8D400B8BF4942EC
:101CC0000028B8BF4042814226DA4FF08057D7F84B
:101CD000A4014568B4F8BC0030214FF47F420823CA
:101CE00000903046A847D7F8A4014568B4F8C00072
:101CF00004214FF4F802122300903046A847D7F889
:101D0000A401B4F8D070456820214FF440620A2342
:101D100030460097A847012584F8D8501AE151F8B9
:101D2000258C09F0A7FD2F4600B901273946924FAF
:101D300038680028FCD0B146012609F10409D9F819
:101D40002CA03E6009B109F09BFDCAF30720C4F83E
:101D5000BC0009F08FFDAA4600B9B2463B68002BD3
:101D6000FCD0D9F800B0BAF1000F3E6001D009F004
:101D700087FDCBF38440C4F8C00009F07BFDAA4680
:101D800000B9B2463B68002BFCD0D9F81C90BAF1E0
:101D9000000F3E6001D009F073FDC9F38120C4F843
:101DA000D000B8F5C061C4F8B81000F09C8094F879
:101DB000D80068B9C4F8D410D4F8C000C4F8C8007A
:101DC000D4F8BC70C4F8C470D4F8D030C4F8CC30A7
:101DD000D4F8D400D4F8BC30002854BF02226FF0ED
:101DE000010204F1C8010F6800EB400080184210A6
:101DF00000EB927207EBA2000860D4F8C810C4F898
:101E0000C43000291CDD1E293CDDD4F8CC0030B9DB
:101E10003429B4BF15391E21C4F8C81025E02A2979
:101E2000BABFD4F8C8000B381E20C4F8C800D4F8D4
:101E3000C4003F28B4BF401C3F20C4F8C4001FE0CA
:101E4000D4F8CC00032812D011F10B0FC6BFD4F880
:101E5000C8000B30301CC4F8C800D4F8C4000028F7
:101E6000C4BF401E051CC4F8C450032508E011F18E
:101E7000150FC6BFD4F8C8001530301CC4F8C80010
:101E8000C4F8CC504FF08057D7F8A401B4F8C43050
:101E900030214FF47F424568364800930823A84715
:101EA000D7F8A40104214FF40032112345683148CA
:101EB0000096A847B4F8C860D7F8A40104214FF4ED
:101EC000F802122345682B480096A847D7F8A401CA
:101ED00020214FF440620A23B4F8CC6045682548BD
:101EE0000096A84701E084F8D85040F2FF504045E2
:101EF00002D8801C40452DD208202EE051F8251C28
:101F00001E4F4BF2F5204843060A3868C0F3814063
:101F100001280AD108F0AEFB07F0BAFB09F0B6FCC5
:101F20003111C010484306EBE03694F8E50030B9B3
:101F30001348006820F07F403618760801E084F8E6
:101F4000E5501048310C0660012741600E4D876056
:101F5000287808B90B2000E0052084F8E40001F09F
:101F6000AFFABDE8F88FC0462D400C402C500C4015
:101F70006415002000A00C4000800C40B43F0050CD
:101F8000102009403C600C404DCC00002DE9F04F82
:101F900009AFADF13C0D08900A92388809911E46B0
:101FA000ADF81800101C08BF002000F06C8101780B
:101FB00000274FF0010B401C4FF0FF39B846DA46BE
:101FC0000A9058E1252940F04D810178401C0A9083
:101FD0002D2918BFADF8068004D10178ADF806B000
:101FE000401C0A9030291CBF4246434604D1017868
:101FF000401C5A465B460A902A29CDF800804D467F
:1020000017D1049330680A9BCDF80890C01C20F0CB
:102010000300001D306050F8044C1978002C009427
:1020200003F101000A9018D5ADF806A064420094AF
:1020300013E044460AE0600000EBC4004018A0F141
:1020400030040A9801780094401C0A90302901DB82
:102050003A29F0DBCDF8089004932E2929D1017894
:10206000401C2A290A9011D13168CDF80880C91C7A
:1020700021F00301091D316051F8045C002D48BFB7
:10208000454601782B46401C0A9011E045464346E0
:102090000AE0680000EBC5004018A0F130050A987E
:1020A00001782B46401C0A90302901DB3A29F0DBED
:1020B00002930AB1224604926C2904D04C2918BF1D
:1020C000ADF8048004D10178ADF804A0401C0A905A
:1020D0000BA8CDF80C800FAB07906429059379D03D
:1020E000692977D0BDF818C0752965D0782961D0E5
:1020F0006F295DD0702946D0632936D073291AD054
:102100000A98401E0A900998012812D961490C6862
:10211000B5F1FF3F03D0A84288BF6D1C00D8099DD0
:10212000029508A80AA932466B46A0473F180398B3
:1021300065E0454617E03068C01C20F00300001D34
:10214000306050F8040CBCF1010F014608B94FA0F3
:102150000146079109F0D0F90390B5F1FF3F4FD048
:10216000A8424DD9039528464AE03068C01C20F0AB
:102170000300001D306010F8040C8DF82C005D4643
:10218000039558463CE0082035680490E81C20F090
:102190000300001D306050F8041C082210230FA813
:1021A00005F006FC401E079040210170079823E0CF
:1021B000082302E0102300E00A233068C01C20F04E
:1021C0000300001D306050F8041CAA42BCBF2A1C4A
:1021D00004920DE03068C01C20F00300001D306048
:1021E00050F8041CAA42BCBF2A1C04926FF00903D9
:1021F0000FA805F0DDFB07900599081A0390009CD5
:10220000241ABDF8065000945DB906E008A8202104
:1022100009AA08F005FA7F1C009C641E0094F5D5FD
:102220000398401EB0F1FF3F03900FD1BDF80600A8
:1022300001281CD10098401E009018D408A8202125
:1022400009AA08F0EDF900987F1CF4E707980178D7
:1022500009AA08A808F0E4F90798401C0790039819
:102260007F1CDEE708A809AA08F0DAF97F1C0A98A3
:102270000178401C0A9000297FF4A4AE089808B1A8
:102280004146017038460FB0BDE8F08F286E756C7E
:102290006C2900C0C0CE00002DE9F04FADF11C0D3F
:1022A000684609F09BF900258DF8005000F028F9E8
:1022B00010B16CA008F0D6FE082003F089FFDFF80B
:1022C0001C820120864C874F874EC8F80000386872
:1022D0004008FCD33068416802208847C0B200281B
:1022E0002070F4D0C8F80050082003F0B7FE7F4EED
:1022F000707828B3F069294603F0E6FD00B3307822
:10230000012818BF022717D1217806F18800017033
:1023100096F8422196F8501101232F4665F3C71213
:1023200063F3450186F8501196F8511186F8422161
:1023300063F3C70186F85111F06905F063FF17B127
:102340004EA008F08FFE207820750227677508F0F0
:102350009BFC04F1FC0AAB4604F21317DFF89891DA
:1023600020610AF1150362480593D0F80080A06847
:102370004FF0FF325946134602F0B0FF0646700890
:1023800021D308F081FC2169E269434681422CBFD8
:10239000091A411A4B43B3FBF9F15218E261638801
:1023A0002061564DE382286820830D2009F036F81D
:1023B0005D4600B9012584F82050A169E269236ACD
:1023C000606903F04DFCB0080CD365783DB109F0AD
:1023D0000DF901F0E1FF10B131A008F043FE5846BD
:1023E00009F054F9300915D39AF81600032811D1D1
:1023F000404DCDF810B0083D387815F8081F8842D8
:1024000003D16A680598394690470498401C05280E
:102410000490F1D96078F1081DD301281BD094F8FD
:10242000251294F82422A068914211DD01F09CFC51
:1024300010B123A008F016FE01F0AEFF10B118A0F5
:1024400008F010FE94F82402401C84F8240202E0F4
:10245000102105F005FA700989D3012009F016F959
:1024600085E7C046456173794C696E6B5F696E693B
:1024700074206661696C656400C046C0456173790B
:102480004C696E6B5F656E61626C65527841646425
:102490007246696C746572206661696C656400C01F
:1024A000456173794C696E6B5F72656365697665CA
:1024B0004173796E63206661696C656400C046C0D3
:1024C000456173794C696E6B5F7472616E736D698F
:1024D00074206661696C656400C046C0A802504201
:1024E0002005002008800240CC0100106810002068
:1024F00040CE0000041A0020A086010028500940A8
:102500002DE9F04F8F4C071CADF14C0D04D104F1B7
:10251000480009F063F805E097E82E0004F1480050
:1025200080E82E00607858B1E069002103F0CCFC0F
:10253000002808BF092000F00281606902F076FAE5
:10254000E078012811D004F1B80008F07BFF4FF4C7
:102550007A60E16CC4F8B80029B1206D18B1C4F8F4
:10256000CC10C4F8D0000120E070606D00211C2266
:10257000206104F1D40005F087F86FF04F0784F86C
:10258000E57043F60500A4F8D40094F8E00020F0CC
:102590000F0084F8E00094F8E10020F00F0040F014
:1025A000030084F8E10094F8E400012565F30000DD
:1025B00084F8E40094F8E40065F3C30084F8E400D0
:1025C00094F8E4000026B04668F3041084F8E400B0
:1025D00094F8EB0084F8486020F00F0040F004000D
:1025E00084F8EB0044F62063C4F8EC3007F00EFCEE
:1025F0003746052808BF2F1C534904F1B803381C7F
:1026000011D1084600F14001B1E8805204F5867608
:10261000A6E88052B1E88050A6E8805091E8821088
:1026200086E882100CE0084600F14001B1E88052D3
:1026300004F58676A6E8805291E8825086E88250BA
:1026400000F11001B1E8005204F15806A6E800526A
:1026500091E8025086E8025090E8005604F13807ED
:1026600087E80056DFF8E4C0BCE8004E04F59A7134
:10267000A1E8004EBCE8004EA1E8004E9CE80056E0
:1026800000F1280781E80056B7E8005204F1700114
:10269000A1E8005297E8015081E80150207904F543
:1026A000867204F1580704F1380110B1052084F84E
:1026B000380004F5487000F07DFB04F18806C4F88A
:1026C00058618821A4F84C1194F8426125704FF0AC
:1026D000E24294F850116061434665F3C71684F8EE
:1026E000426165F3450184F8501104F12406C4F8F1
:1026F0005C6104F12C06C4F8606102218DE80600DB
:1027000039461A4607F0F2FF464602A8242208235B
:102710004146A66109F032F90BA808F01BFEE069FA
:1027200048B9404602A90BAA07F0EEFAE06100287A
:1027300008BF032003D005F065FD6570404613B067
:10274000BDE8F08F6810002010180020681A0020E3
:102750002DE9F84F07468748DFF80C8235380068C6
:10276000800880F0F28007F085FF864908310B6809
:1027700000251C17641C990D0AD2C0F13E0110F10E
:102780000A0F4FEAE101D8BF08218C42B8BF0C1CE8
:10279000DFF8D8E1990E0FD2590E0DD37246143AD4
:1027A0001168C1F304211629A8BF20391268C2F3A9
:1027B0000462162A0EDB0CE0684AD2F87C11C1F3E1
:1027C00004611629A8BF20391268C2F30442162AF0
:1027D00000DB203A09199346162905DA11F10A0F90
:1027E000B8BF6FF0090100E015215D4C5D4E01F0AE
:1027F0001F0242F4F8522280326812F0030F18BF11
:102800000125D20828BF45F002050FB145F00405A7
:10281000424692F90740041B052C04DA9479AC4235
:1028200008BF918870D00F28A0F10F0A2BDB0AEBAC
:102830000014A4F1F00A4FEA2A29B9F1070F88BF62
:102840004FF007094E46062E88BF06265EF8267012
:10285000042404EB8604764634594FEA9508E41BB9
:1028600004F0FF06EF0824BFC4F307273E444FEAF5
:10287000550CAF0824BFC4F307473E446F0828BF78
:1028800006EB146605E000264FEA95084FEA550C62
:10289000B1465EF829E05FEA58070EF0FF0424BF56
:1028A000CEF307273C445FEA5C0724BFCEF307471B
:1028B0003C446F0828BF04EB1E64B6B2ABEB0101C9
:1028C000AAEB09277E43002906F1800604EB1624B3
:1028D000D8BF012103F0FF0334264E43B1B2594360
:1028E0004FF6FF73B1FBF4F18B4238BF191C8028FF
:1028F00089B2918005DA10F1800FB8BF6FF07F00C8
:1029000000E07F20D0719571194800681F29106080
:102910004FF0000008D340F2FF128A4206D2490865
:10292000401C8A42FBD301E01F219180124F114EBF
:102930000F39090940EAC10047EA0001C6F8FB1F48
:102940000025C6F8FF5FBDE8F88F0C490C4F4246E2
:1029500008200F60921D1070BDE8F88F3C110050E8
:102960006E62084024220840E43600209C13005088
:10297000082009403500094000E7A48030100940D4
:10298000FDFDA400AC3F005001282DE9FE4F40F0B2
:10299000EE80DFF810B2DBF8DC00012840F0E480C4
:1029A0000220CBF8DC0008F08FF8012007F02AF9AC
:1029B0005FEA000805D00120CBF8DC0008F094F8AD
:1029C000D7E009F0BEF86C490290002008600120B1
:1029D00007F070FC012818BF002003D1002005F08B
:1029E000BFFA0120654900900020654F08603868F3
:1029F000112008F05DFF00280CBF002401241020E6
:102A000008F056FF08B144F002040F2008F050FF10
:102A100008B144F004040B2008F04AFF30B16248CA
:102A200014300068574E016B308888470A2008F040
:102A30003FFF002600B101264FF0805A0AF5DC75F1
:102A4000301C04D02868504E016B308888474F48AE
:102A5000012606602868816944F0200088474C48B8
:102A6000066008F01FFF00F001010191400814D238
:102A7000484808F0C3FE8146B9F1040FF8D0B9F117
:102A8000010F05D1DAF8D801426842480321904786
:102A90004149086820F0030008600020FFF758FE55
:102AA0002B683868986B8047019801280DD0B9F1E0
:102AB000010F05D1DAF8D80142683648314690470F
:102AC0003549086840F0030008602C480660286813
:102AD0004169204688470B2008F0EAFE20B12868AB
:102AE000284BC16A188888470A2008F0E1FE20B107
:102AF0002868254BC16A1888884724480322066045
:102B00002349CBF8DC2000230B602868416B20466A
:102B100088470128F9D13868042007F073F8044683
:102B200015481E490660386808688009FCD300987B
:102B3000012802D1304605F013FA08F0A1FE082062
:102B400007F060F807460298CBF8DC6007F0F6F86B
:102B50001348008804F0D0FF07F0C6FF57EA0400CE
:102B600018BF4FF0FF3804E06FF0040801E06FF089
:102B700001084046BDE8FE8F0C4009400002224398
:102B80002C20094008C7000004C700002820086066
:102B900080010443004003402422084014100940EF
:102BA00048CC000064150020A40100102DE9FE4F60
:102BB0000D46064628687468D6F80880E8B1AF6804
:102BC0000FB96B68CBB194F894100020012908BFAD
:102BD0000120384202D16968084205D0012080F006
:102BE0000100C0B2012808D108F099FFD4F888107C
:102BF00031B108F06CFF032028740020BDE8FE8F7F
:102C00004FF0010985F81090C4F888500021019117
:102C1000C4F88C10C4F8901008F059FF94F8AC0078
:102C200038B194F895206149D4F8A400114306F016
:102C300067FF6F6808F073FF824694F8E00070B990
:102C400017F0704F06D12FB1042007F057F9062076
:102C500007F054F9022007F051F984F8E09050464B
:102C600008F035FFD8F80010486840F002004860CE
:102C70002078002874D12868D8F81C1081426FD9B8
:102C8000AE680EB904F1AE066F6837B9B8F80E0039
:102C900004F1AE07A4F8AE002868616909292CBFC9
:102CA0004FF0020BCB465FEA000930D0DFF800A1FD
:102CB0006069092811D3DAF8000042683988D8F829
:102CC00000009047DAF80000C268D8F800006946B2
:102CD0009047BDF80000308010E0DAF8000042684C
:102CE0003978D8F800009047DAF80000C268D8F8C0
:102CF0000000694690479DF800003070AB6803B152
:102D00005E446B6803B15F44B9F10109D0D1D8F8D2
:102D10000010486820F0020048606F6808F0FFFE6D
:102D2000054694F8E00078B117F0704F06D12FB146
:102D3000062006F0FFFE042006F0FCFE022006F04E
:102D4000F9FE019884F8E000284608F0C0FE0198DA
:102D5000D4F888100874C4F888000120019022E09B
:102D60002046414601F0DCFDD8F80010486940F0EB
:102D70000100486120780028EFD1616804F16C00FF
:102D8000054608F008FC0028E7D0D4F88800017C4C
:102D9000012904BF03210174304602F027FA01998A
:102DA000284608F0F8FB0198BDE8FE8F0000068079
:102DB000C40100102DE9F047044669480E46016839
:102DC0001F461546ADF1380DBEB1B5B130784FF0A4
:102DD000010808FA00F001420FD01046002102F06D
:102DE00015F96660A56008F09AFE5E4D8146287868
:102DF000022804DB484608F06AFE0020ADE0002807
:102E000061D101F003FD584908680DF1280A40F02E
:102E100002000860504608F021FC544E5449707876
:102E200052460C9005F1B40006F0AAFC514905F198
:102E3000E800524606F0A4FC504608F0DFFB30786C
:102E40004D4A192153460B9005F1380006F0E2FB7C
:102E50004A4A05F154001A21534606F0DBFB484963
:102E6000002205F19000134606F03AF8454A05F1B4
:102E700024000421002307F025FCB078012802D1AA
:102E80000E2003F0A5F905F1780008F0B2FA05F17B
:102E9000700008F0AEFA002085F820004FF4FA72B6
:102EA000C5F824212875072185F8B811E861364B4B
:102EB0001870C5F8282185F821000526A860334937
:102EC0002E612878A96105EB8001401CC1F81C41E6
:102ED000C0B22870484608F0FAFD1FB903AF384663
:102EE00008F0B0FA38682060B86941462062388A34
:102EF00061746082786800280CBF40F6C41000211D
:102F0000E06021742248A061E0616061F86800B16E
:102F1000A061786900B1E061B86800B16061A02289
:102F200004F12800002104F0AFFB04F1400000216F
:102F300007F02EFA684608F097FD1649029404F14E
:102F4000780000226B4605F0CBFF134904F19C008A
:102F500000226B4605F0C4FF20460EB0BDE8F087A6
:102F6000D4210840B02C0020002009407CCD000076
:102F700045B10000315D00007D83000085740000D4
:102F800029AB0000A58A0000FA3600209155000008
:102F90005F78000089AE00008DBA00002DE9F04F87
:102FA000ADF1240D079001F031FC6048007806F087
:102FB0002DFF5F4D0024012806D90C3804D0401E97
:102FC0000ED0401E09D006E008F074F8022804BFB5
:102FD00001210C1C06D0696805E005211F2401E0D1
:102FE000032107246960534A1068C0F38150012807
:102FF00006D152F80C0C0127020E07FA02F0044326
:1030000008F014FB524AFF234018401E471C28605A
:103010007F1E02F8013BFBD1079A1268002702F0DD
:10302000FF03FE2B20D0DDF81CC096463B46012650
:103030000EF0FF02FF2A10D0904205D3914203D830
:1030400006FA02F2144201D002206CE017430EF09F
:10305000FF02DFF8FCE00EF802305CF804EF5B1CC6
:103060000EF0FF02FE2AE5D1092003F0B1F807981F
:103070000121A86005F1280007F08AF905F19806FA
:10308000A8464FF0010A4FF0040B0025A9460AFAA2
:1030900005F0044216D1074204BF05F0FF0141F4D8
:1030A000C04104D02A480799405D51F820102248B9
:1030B00002F0DEFAE8B24FF0FF3107F0C9FEC6F8C1
:1030C000009001E0C6F800B0D8F800006D1C361D75
:1030D0008542DCD904A808F091FA184C184A2078E7
:1030E000102104AB059008F10C0006F093FA684635
:1030F00008F0B4FACDF80C906A4660681149029065
:1031000008F1640006F03CFB0F4951F80D0C20F467
:10311000F85040F4005041F80D0C0C4FC1F8FFAFCF
:103120004846C7F800A009B0BDE8F08FFB36002084
:1031300050140020B43F0050007FC767ACCD0000A2
:103140006DAE0000559400000D30094008000940A4
:10315000941400202DE9FC4F83F0004301E02DE999
:10316000FC4F1F03FF0847EAD2574FEA42284FEAB5
:1031700043095FEA595906D147EA080A1CBF0021F2
:103180000020BDE8FC8F57F000575FF4E06E1EF1A1
:10319000FF0EF14505D14FF00000190D0905BDE8FE
:1031A000FC8F002B05D55FF0000AD8F100086AEB10
:1031B00007070C03E40844EAD0544FEA40254FEADD
:1031C0004106760D08D144EA050A19BF0021002006
:1031D000191C101CBDE8FC8F44F00054764504D146
:1031E0000020090D0905BDE8FC8F002904D55FF01A
:1031F000000A6D426AEB0404B6EB090E08D5A2463C
:103200003C465746AA464546D046CEF1000E4E46AD
:10321000BEF1360F5CBF4FF0000B23E0BEF1000F94
:1032200004BF4FF0000B1AE0CEF1390ABAF12009C1
:103230002EBF08FA09FB07FA0AFB4BEA080BDEF17E
:10324000200A07FA0AFA38BFBA4647FA0EF72DBF26
:1032500028FA0EF8AEF1200E4AFA0EF8D04415EB1B
:1032600008057C4154EA050A02BF00210020BDE8A0
:10327000FC8F002C58BF4FF0000A06D55FF0010A02
:103280005FF0000E6D426EEB0404A6F101066D00C6
:103290006441FAD515F4806E11D005F480794BEABB
:1032A000090B15F5806554F1000428BF761C0BD27C
:1032B00005F400795BEA090B08BF25F4006525F4E5
:1032C000E0656D0044EB0404B61CDEBF0021002065
:1032D000BDE8FC8F5FF4E06E1EF1FF0E76450AD369
:1032E0004FF0000013F00043FF21C900C91D09057C
:1032F0001943BDE8FC8F270547EA1530210B41EA49
:10330000065141EACA71BDE8FC8F70472DE9FE4FB6
:10331000984692460D46834608F001FC02906548A7
:1033200006680CAF5E450CBFD0F80490B146634C04
:103330006FF00100B9F1000F019006D009F19C0077
:1033400008F044F9002840F0A48007F06DFA061C4C
:1033500000F0AA800BF1780008F0DDFBF560B4F90D
:103360008C009AF80430401C86F836306FF31F301A
:10337000A4F88C00C6F80880B4F88C00B0864E48DB
:10338000C6F810B097E80C00202100271940104023
:1033900006F1180383E80300B84686F8377006F193
:1033A000200282E880013763F762DAF8003003B167
:1033B0003363287B00F00F00022804BFA868F06286
:1033C000F06800886FF30900B0F5205F05D196F82A
:1033D000370040F0100086F83700D4F844018345E8
:1033E00007D194F85001410824BF00F0FE0084F892
:1033F00050013846CDF80080484528D05846494607
:1034000032466B4602F0C2FB8046B8F1010F04D190
:1034100004F17000314607F024FBB8F1020F0BD124
:1034200000990A6804F170001AB9314607F008FBE8
:1034300002E0314607F0F3FAB8F1040F04D196F830
:103440003610009807F072FE38F0040004D104F141
:103450007000314607F0F4FA18F1020F10D018F19D
:10346000030F0DD0B6F9340096F83750019045F0AF
:10347000800086F837008BF8C07007F06FFE13E00D
:10348000B4F98C0000F6FF706FF31F30A4F88C00C5
:1034900002E06FF00200019094F8500140F0040047
:1034A00084F85001C4F844B1029808F010FB019868
:1034B000BDE8FE8FCC2D0020FDEFFF9FB02C00203B
:1034C0002DE9F843614C5A4D5A4EDFF870815E4F3A
:1034D00094F8E4100846401E0B2864D8DFE800F09A
:1034E0007B2C43062343062343067664042907D036
:1034F00001220A2945F8212C14BF0220032004E0F0
:10350000202045F8210C0120024684F8E20000202A
:1035100045F8390C0827C5F8FF7FC5F8F37F45F853
:10352000392CBDE8F883052914BF0920062000279F
:1035300084F8E400376075E094F8E170383D0120CC
:10354000002FC5F81B0004BF0620002102D0002177
:10355000F160032084F8E400032045F8010C316099
:10356000306880085ED294F8E410334801270329BC
:103570000ED0006845680021602205230091404676
:10358000A84794F8E400062814BF0A200720CFE7D4
:103590000068456800216022052302200090404613
:1035A000A8470420C4E7FEE72548264F002601254A
:1035B00006600E203D6002F051FD022006F0BAFACE
:1035C00084F8E45084F8E360BDE8F88300203860B4
:1035D0000C25786024E04FF08059D9F8A0010168EB
:1035E000202088472C3D0F2045F8010C41F61D5640
:1035F000C5F80360D9F8A401466800214FF4C072F1
:103600000723022540460095B047D9F8A401C668B3
:1036100000214FF4C07207234046B04701203860B4
:1036200084F8E45004F1780008F073FABDE8F883F8
:1036300039400C4038600C40A401001000A00C4040
:103640002C500C4004800C4034600C406415002069
:103650001CB55F4CA07810B95E480078A070217846
:10366000012913D0206A08F0F3F8A0780090206AAE
:10367000002126A30A4606F0A9FFA0880090206A30
:103680000121002225A306F0A1FFA0780090606A26
:10369000002125A30A4606F099FFA0880090606AE1
:1036A000002128A30A4606F091FF2078E2882189AC
:1036B000D8B994F90100B0F1FF3F26D0616AC0B2D9
:1036C00048B1401E04D0401E14BF24A326A300E02E
:1036D00029A3084615E0084600212BA30A4606F058
:1036E00075FF606A08F0BAF81CBD00920191606A2B
:1036F0002CA300210A4606F069FFE0690090606A89
:103700002DA300210A4606F061FF1CBD4E6F6465C3
:1037100049443A2030782530327800C04144433A59
:10372000202530346400C0461B5B324A201B5B30CE
:103730003B30484E6F64652049443A20307825304C
:10374000327800C04E6F6465204144432052656169
:1037500064696E673A202530346400C04F41443AB2
:10376000206572726F7200C04F41443A2043524349
:10377000206661696C6564004F41443A2061626F64
:103780007274656400C046C04F41443A20636F6D57
:10379000706C6574656420737563636573736675B7
:1037A0006C6C79004F414420426C6F636B3A20256A
:1037B00064206F66202564004F414420426C6F6393
:1037C0006B20526574726965733A20256400C046A7
:1037D000500B0020200500202DE9FF410646880FF0
:1037E000C0F0A780002005F00DF9534807F026FF30
:1037F000012007F059F9514A40F60A0111800020D2
:103800005080137B60F3030313735060537B4FF0BE
:10381000010868F303035373B56868802B88A3F627
:103820000207A7B141F21E03FF1A10D06B7E60F3AE
:1038300082036B76777C37B92B8B23F47C7343F44C
:1038400034732B8313E02B8B60F30913F9E76B7C44
:1038500060F382036B74777C2FB92B8A23F47C731B
:1038600043F4347302E02B8A60F309132B828E46F3
:1038700070742F46AEF1070101F1010C00E02746FC
:103880007C6834B123889E4503D0994218BF9C457B
:10389000F5D17A602C4C7B7B241F60F303037B7390
:1038A000236F33B1DB681B8899421AD06146994275
:1038B00017D0338DB3B1F06206F12801488096F835
:1038C000343060F3030386F8343096F8353068F30B
:1038D000030386F835305160517B60F30301517367
:1038E00000E0A0602846694602F00CF8684607F040
:1038F00095FE07F0B1FD1248A06194F8210058B977
:10390000404606F0D7FC01280CD0787B68F3030012
:1039100078730C4EA66105E005F0F6FE0028FBD09A
:1039200008F007F9284607F089FE2946404606F0C8
:103930008DFF0090BDE8FF8101010E04A836002034
:103940000D190000558A0000B42C00202DE9F84F15
:10395000804692460868DAF80040067800271D463F
:10396000BB46421C242E0A6026D110F8016F521C5F
:10397000532E0A6020D1E41C24F00304241D54F8C3
:10398000040CE861CAF80040288B0090A968EA6935
:10399000D8F800005346FEF7F9FA8346D8F800003D
:1039A00010B15844C8F80000DAF800402868EF6009
:1039B0000127A0EB0B002860662E05D0002F64D1F4
:1039C000E869067001205FE0288B40B9E41D24F00F
:1039D00007040834A4F1080090E8000309E0E41C9F
:1039E00024F00304241D54F8040C05F077FF8946E5
:1039F00080462AA20CCA4946404603F039FC28BF3B
:103A0000002705D2286989F000490127401E286156
:103A100024A20CCA4946404603F06DFC31D340460F
:103A200005F0A6FA064606F0E9FB0B4602464946B3
:103A30004046FFF78FFB1DA20CCA01F073F905F099
:103A40001DFC0146686904220A2303F0B1FF401EF1
:103A5000E8612E2101706B692A69E86931461B1AF9
:103A6000EB60D21A0A2303F0A3FF002F08BFE8611E
:103A700004D0401EE8612D210170E8696969081AC7
:103A800002E004A0E8610720E860CAF80040584658
:103A9000BDE8F88F286572726F722900000000007F
:103AA000000000000000C0FFFFFFDF410000000039
:103AB0000088C3402DE9FF4104466668A7680D46AB
:103AC00008F02DF83178012903D108F000F8002022
:103AD0008CE00121317007F0FAFF28787070687867
:103AE000B07068687060A868B060E868F0602869C5
:103AF0003061287D3075687D7075A87DB075A869C6
:103B0000B061287F3077687F7077A87FB0774FF0FB
:103B10000008C6F82080C6F8308045467562756397
:103B2000B562B56386F82C5086F82D50786802F09F
:103B30004FFB204602F0A0FC204602F065FF70B962
:103B40002C480068C16838688847786802F086FAAF
:103B500007F0E5FF357007F0BAFF2C4645E06846F0
:103B600007F04CFD0094387B234A0190B9686B46FE
:103B700006F17C0005F04EFD684607F06FFD0094ED
:103B80001E4938696A46029006F1980005F0F8FD72
:103B9000B07830B906F1CC00294606F0F9FB184898
:103BA0003061707830B906F1E800294606F0F0FB84
:103BB0001448F060684607F057FF01958DF80050F3
:103BC0001149029406F582700A226B4605F088F9C5
:103BD000B969FA6906F13C0007F0D4FC0B4A06F11A
:103BE00068000421234606F06DFD20460090BDE8E4
:103BF000FF81C046D0010010B53E0000A16A000060
:103C000061BA000041BA0000919000007DB7000049
:103C1000B0B5456884684F48297BADF1180D01297E
:103C200016D0217E627E4C4B2F7E0143009143EAE9
:103C300002010191494937F0010718BF081CA27E13
:103C40001043029095F895000322FF2811D00DE053
:103C5000677E217E3843A37E019041F000410091B0
:103C600043F000403E49029095F89500014304223C
:103C70000391FE204DF82200694605F1980002F0FC
:103C80002BFEC5F8A400002808BF00205FD0287BC9
:103C9000344951F8200001282BD02068B0F1804F22
:103CA00014BF22220A22217ED5F8A40006F02EFBA2
:103CB0002068B0F1804F14BF21220922617ED5F81F
:103CC000A40006F023FB2068B0F1804F14BF24222B
:103CD0000C22A17ED5F8A40006F018FB95F89510EB
:103CE000FF2933D02068B0F1804F14BF23220B226C
:103CF00028E02068B0F1804F14BF21220922217EE4
:103D0000D5F8A40006F002FB2068B0F1804F14BF84
:103D100022220A22617ED5F8A40006F0F7FA206874
:103D2000B0F1804F14BF24220C22A17ED5F8A4004C
:103D300006F0ECFA2068B0F1804F14BF23220B226A
:103D400095F89510D5F8A40006F0E0FA012006B029
:103D5000B0BDC046000480A0004000800004C0A0A8
:103D60000020008078C8000070B5514C183C607885
:103D7000ADF1180D002808BF012000F09480E06923
:103D8000002102F0A1F8002808BF092000F08B8074
:103D9000464D2278287B16468028C8BF022000F3B3
:103DA000828004F5B270294602F0FCFC2A7B3019AF
:103DB00005F10D0100F5B27002F0F4FC04F5B271EA
:103DC000287B94F84830C4F884108019042BC0B2C2
:103DD00084F87F0004D080190A308100192004E0A3
:103DE0008019502101EBC001052091FBF0F6A86875
:103DF00088B994F87C10002060F3030184F87C10EB
:103E000094F87C10012565F3C71184F87C10A06735
:103E100004F068F90FE094F87C1021F00F0141F0F4
:103E2000020184F87C1094F87C10012565F3C71119
:103E300084F87C10A067B1B24FF47A6202FB0100F3
:103E400002902079626960B902204FF0E2418DE86A
:103E500003000023104604F170012A4602F068FABC
:103E60000DE08DF80C5002204FF0E24100238DE868
:103E70000300104604F1700102AAFFF747FA014659
:103E8000606902224FF0E24301F038F90025022276
:103E900015EA010602EA000204BF002A0525E069CE
:103EA00004F0B0F9284606B070BDC046B406002044
:103EB000801000202DE9F84F8046D8F8086030685F
:103EC000D8F80450076CDFF830B14764AB6B6A6C0C
:103ED000286C17F4F06F1946A0EB020934D1F809E9
:103EE0001ED2780974D3B1B196F821205846801DAE
:103EF000845C601E814294BF1C1C641E40462146A7
:103F000005F0D0FCA86B001BA86361D105F19800F7
:103F1000012107F01AFE4046494606F01FF857E017
:103F20000029F8D0404605F0BDFC95F82D10A86397
:103F300011B900284CD101E00020A86305F19800D8
:103F4000012107F002FE43E0F80A20D24FF0000AF8
:103F5000544602E0AB6B5B1EAB6393B1404601215C
:103F600005F0A0FC3068446814F00F04C0F804A009
:103F7000F0D0286B401E2863686B401E6863A86BF6
:103F8000E8B905F19800012107F0DFFD13E0306882
:103F900044680022202904F00F044260CCBF4FF097
:103FA000200A9A464046514605F07CFCCAF12000A2
:103FB0008145C8BF81464946404605F0CFFFEC77B2
:103FC000404603F001FE726A12B140462146904716
:103FD000B8090FD3A96A69B10F46404605F0EEFC57
:103FE000A86238B996F820205946895C4046C9191C
:103FF00004F0A8FDBDE8F88FC4C700004E492DE9C4
:10400000F843886F8D6F01F17809002800F09180E6
:104010000646F06840F6030220278846531C02E05B
:1040200040687F1EFFB260B15FB101888A4218BF4D
:104030008B42F5D131691CC828311CC189C881E87F
:104040008900AE68AA6A0027AF6236B395F83700D8
:1040500000F00700401E0BD0401E06D0801E18BF87
:10406000002308D14FF0805304E04FF0804301E07B
:104070004FF000533A4695F83700000908D395F8F9
:10408000370010F0070F03D04FF080703A4303431E
:10409000AC682869B5F93410A04707F040FD044624
:1040A000B8F98E00401C6FF31F30A8F88E00484608
:1040B00085F8377006F0A2FC204607F008FDB8F935
:1040C0008C00B8F98E10884233D1286990F8C0006E
:1040D00000280CBF0520072003F050F908F58E7169
:1040E00028690E68864208BF4E6890F8C040002CD0
:1040F0000CBF04683C1C80F8C0704EB196F8C0300C
:1041000023B93068A04228BF041C01E086F8C070C3
:1041100064B1B4F1FF3F0CD00849286909687830D0
:10412000B4FBF1F107F039F9BDE8F883082005F098
:104130001BFDBDE8F883C046B02C0020F0360020FF
:104140002DE9F0414A4DD5F88070D5F88440002F14
:1041500000F08280B86940F00A0006F0C3FF010950
:1041600024D2810800D30CB307F1180292E818009A
:10417000002103400C4008BF002B71D0BA69BE6A11
:1041800007F1200410403043B86294E80C00C5F8F1
:10419000887007F120061943104386E8030005F1F3
:1041A000B4004FF4804107F0D0FC59E0B969BE6A11
:1041B00041F00A0108403043B86207F1200696E852
:1041C0000C000021002619431043C5F8806007F158
:1041D000200383E80300254BBA69196891431960ED
:1041E000FA6953F8081C05F178008046914343F8BA
:1041F000081C394606F024FC05F1B400022107F042
:10420000A4FC6CB320693969884229D194F837102D
:1042100097F83700084310F0070019D041080AD278
:10422000810839BF94F83710084394F8370040F0FC
:104230000200024603E094F8370040F0010284F8DF
:1042400037204046214606F0FBFBC5F8846007E0B6
:10425000022001F061FF03E04FF0FF3006F042FF63
:1042600002F0B8F801F096FEBDE8F08114100440A9
:10427000B02C00202DE9FF410546080B7FD3414CAF
:1042800060680421026A2175D20802D3C369002242
:1042900098473D4904F13800002207F046FC3B48AE
:1042A0006768A0617968886808B9C86810B138483B
:1042B00007F0C4F9012004F0A5FB364807F0BEF969
:1042C000D5F808800020A8F80200A9680A88A2F69C
:1042D000020747B141F21E02BF1A04D00A8B60F3F5
:1042E00009120A8303E00A8A60F309120A8240F67F
:1042F0000A064246F11F01F1010C00E03A465768F8
:1043000037B13B889E4203D0994218BF9C45F5D1F6
:104310005060537B012666F303035373236FDB68FE
:104320001B8899421AD06146994217D02F8DB7B198
:10433000E86205F12801488095F8343060F3030302
:1043400085F8343095F8353066F3030385F8353059
:104350005160517B60F30301517300E0E06040461F
:10436000694601F0CFFA684607F058F907F074F88B
:10437000404607F063F94146304606F067FA009080
:10438000BDE8FF81B02C002049AB00000D190000F2
:104390005100070601010E042DE9F041434C6078FD
:1043A000ADF1180D002808BF01207CD0E069002184
:1043B00001F08AFD20B1B4F90600A769002801D4F4
:1043C000092070E03A4804F124018926E06004F5F0
:1043D000F872C4F85C1104F12C03A4F8F66101250D
:1043E0000A60002094F84011C4F86031064684F851
:1043F000F40160F3030184F8401194F84011A662BF
:1044000065F3C71184F840119846C4F83C0167B9B8
:1044100094F8531165F3030184F8531194F8531180
:1044200065F3C71184F8531110E094F8530120F09C
:104430000F0040F0020084F8530194F8530165F333
:10444000C71084F8530103F04DFEC019C4F854019D
:1044500031460C22404603F017F904F59A7127798A
:104460006069144B0A6A47B902274FF0E2482A46AE
:104470008DE8800101F05CFF0CE002928DF80C5099
:1044800002214FF0E2428DE8060004F59A7102AA7B
:10449000FEF73CFF0028E08004D5E06903F0B2FE9F
:1044A000062000E0304606B0BDE8F081681000202C
:1044B000A5860000B55A0000364AF8B5101D0368FD
:1044C000B3F1FF3F08BF002306F08AFC012860D14A
:1044D000314E10683268070F02F0FF02802A28BFB1
:1044E000002206F07DFC4FF0FF31012805D1381C79
:1044F0004FD0801E04BF143251B2142949DB274823
:104500002749002501270560264E0F60264C37609D
:1045100020680028FCD1274A161D2449244F306802
:1045200020F0030001433868C0080CD2106810F076
:10453000030F0AD041F003003060106800F0030060
:104540000328FAD101E041F001011B483160006805
:1045500020B11A4800681846FCF778FD1848194938
:104560000560194F0A686FF35B4247EA0200086072
:1045700016490868C0F30130012806D10A681448BA
:10458000104040F400320A60086020680028FCD126
:10459000F8BDFEE718130050A010005084046042DC
:1045A0005C600C40082204430C00684204000020B8
:1045B000B03F0050004003408001284300012043E9
:1045C0008C210840482003400000390104000940C4
:1045D000FFFFFCFC2DE9F04304466568A7680E4622
:1045E000ADF1140D07F09BFA95F8E11019B107F041
:1045F0006EFA00206EE04FF0010985F8E19007F0B7
:1046000066FA4FF00008C5F8888030692861706943
:104610006861307E2876307B287330782870706827
:1046200085F8AC80686070694146092828BF494612
:1046300085F89410387B01F0CBFD204603F0DAFFBB
:10464000F87E85F895002046FFF7E2FA30B9387B0E
:1046500001F004FD444685F8E1803AE0684606F042
:10466000CDFF009478791D4A019039796B4605F1A8
:104670001C0004F0CFFF684606F0F0FF00941849D4
:10468000B8686A46029005F1380005F079F803F041
:10469000D1FEC5F8A800287B012808D1D5F8A400D0
:1046A000104907F0F9F8D5F8A40000B184600E4A6B
:1046B00005F1CC000421234606F004F8287830B92F
:1046C00005F16C00414605F063FE084800E0B06863
:1046D000A860204605B0BDE8F083C04665660000CE
:1046E000A96E0000F591000005B9000039BA00007C
:1046F0002DE9FC4705466E68D5F80880B76B002F9A
:1047000018BF4FF0FF307DD131630024F477171CC0
:1047100074631BD006F13C0907F001FA8246694632
:10472000484604F096FF00281ED4504607F0CFF903
:104730009DF80000316B0870306B736B7F1E00F1C9
:104740000100306303F101007063E5D17078726B92
:10475000316B0128A1EB0201316303D1F3682846D4
:104760009847726B14464CE0B763504607F0AFF9B8
:1047700007F0D5F9244D0746287820B9022005F026
:10478000BDFB01202870384607F0A1F9D8F80010C9
:10479000086B40F400700863D8F80010886B40F490
:1047A000FA608863707808BB716806F1E8073846DC
:1047B00006F0F1FEB8B1B4633846214606F0EBFED0
:1047C00088B107F0ACF90746287818B1022005F047
:1047D000B1F92C70384607F07AF91027716B306BFD
:1047E000F777401A3063706BBDE8FC8796F82D00B0
:1047F00038B1706B28B1B46306F19800012107F05D
:10480000A4F92046BDE8FC87F83600202DE9FF47D3
:10481000424C94F8E70000286ED10127384E84F806
:10482000E770F07C84F8E6007568C4F810516846BB
:1048300007F01AF9002504F10C0001956B468DF87C
:104840000050304902952A4604F04AFB2E4904F1F3
:1048500030006B462A4604F043FB2C4904F1540017
:104860006B4681462A4604F03BFBB16838468847D0
:10487000DFF8A4802648327D08F104030078254E35
:104880001868C0F3815A22B1BAF1030F04D184F839
:10489000E170BAF1030F15D0BAF1020F12D0BAF1DC
:1048A000010F0CD0022005F029FB042005F002FDC9
:1048B000012804D030683221B1FBF0F10DE004F0A2
:1048C0007DFF12E0022005F019FBBAF1030F0CBFC7
:1048D0004FF47A7142F210713068B1FBF0F1484642
:1048E00007F015F9484607F014F940460068C0087B
:1048F00002D2284605F002FB00200090BDE8FF87A9
:1049000038CC0000CF7D0000C1650000997C00001C
:10491000FB360020F0360020B03F00506415002028
:104920002DE9F84FD0F88890D0F88CB0D9F8002055
:10493000A2EB0B02B2F5806F88BF4FF48062C0F823
:104940009020D0F8908090F894C00C681FFA88F2FC
:10495000B4F1804F02FA0CF21FFA82FA14BF314B05
:10496000314B2D4AD9F808703FB94FEA8C050095B4
:10497000AD18AE6900F1AE050AE04FEA8C0500956E
:10498000AD182E690CF101050BFB057555446D1E24
:104990009E6096465D604FEA081643F6F07204F199
:1049A0000805103E1D6032409E68B4F1804F42EA17
:1049B00006069E600CBF194E194ED9F804706FB9E7
:1049C000CC89009BA0F8AE4073449B69B36000F1B2
:1049D000AE0737600C6804F108050AE0009B7344D9
:1049E0009B68B3600CF101030BFB037353445B1E24
:1049F00033607560B3681A43B260D0F8A8000A69E2
:104A000040684969006811438162606A40F00300B0
:104A10006062BDE8F88FC04678C8000040040020FE
:104A20001005002000050020300400202DE9F04191
:104A30003D4C05462078002872D0B4F98E00B4F9B8
:104A40008C10884215D0284605F0A8F8021C08D121
:104A5000D4F88010284606F0F9FD08B1D4F880207B
:104A60003AB1B2F9341028464FF0E043002200F08A
:104A700045FB07F054F8804604F58E700168A942A2
:104A800019BF00264660002606602078401EC0B28E
:104A9000207088BB6560207D02280ED1082005F0BB
:104AA00063F8404607F013F805F140004FF0FF317E
:104AB00006F071FD07F033F8804604F1B40007F00A
:104AC0003EF804F1380007F028F804F1E80007F098
:104AD00036F804F1540007F020F804F1900007F0D4
:104AE00010F804F1240006F00FF80E4800780128B1
:104AF00002D10E2001F0B2FA606805F1400785424C
:104B000008BF6660404606F0E2FF384607F013F83B
:104B100005F1780006F0F5FF05F19C0006F0F1FFC5
:104B2000BDE8F0817ECD0000B02C00202DE9F047DB
:104B30008046D8F80450D8F8087091460E4606F022
:104B4000EEFF82463868006B400A63D205F582703A
:104B500006F0E1FF0024EC772E6250466C6206F00E
:104B6000B6FF06F0DCFF2F4E3378824623B90220D1
:104B700005F0C4F901203070504606F0A8FF3968EE
:104B8000086B40F4807008634046494604F016FF05
:104B9000A862C0B94046494603F0D4FFA878C8B916
:104BA000A96805F1CC0006F0F6FCE0B1AC6210207B
:104BB000E8773946284602F0DDFD06F0B0FF824670
:104BC000307838B322E03968886B40F02000886381
:104BD000A87810B12046BDE8F087A96805F1CC009F
:104BE00006F0D9FC10B9686ABDE8F087404649462E
:104BF00003F0A8FF1020AC623946E877284602F09F
:104C0000B9FD06F08CFF8246307818B1022004F01E
:104C100091FF3470504606F05AFF4FF0FF30BDE868
:104C2000F087C046F93600202DE9F0430646DFF84C
:104C3000E880DFF8E8903078394C88F80000D9F83F
:104C40000000154641F204010C22ADF11C0D00F0EC
:104C50000F008002E060684601F0A4FDE979A879C0
:104C600000EB0122171100EB01208000A0EB871060
:104C7000A080EA79A87900EB0223191100EB022049
:104C80008000A0EB811082B20AB1491C8FB2281DAE
:104C90006979007800EB0120ADF80C00BDF80C003C
:104CA000ADF80E3042460021430807D3BDF800306E
:104CB00000F0010003F00103984203D0B7F5707FC4
:104CC00000DC07B981B106F0DEFED9F80030A06043
:104CD00003F00F039B02B0FBF3F0E08006F027FF28
:104CE000002818BF678001D161800F469780D1806E
:104CF0001FB9304605F0D2F80AE0012353709160E5
:104D00003046D160194605F0C9F8A02005F082FBB5
:104D100007B0BDE8F083C046781600203024034079
:104D2000041C00202DE9FC4191EA03084CBF4FF020
:104D300000484FF000084FEAC32545EA52554FEAB4
:104D4000C2264FEA43077F0D11BF45F00045002101
:104D50000020BDE8FC815FF4E06E1EF1FF0E774598
:104D600055D04FEAC12343EA50534FEAC0224FEADD
:104D70004104640D11BF43F0004300210020BDE851
:104D8000FC81744543D0E419A3FB0501A3FB06E7AE
:104D9000A2FB06631EEB030E57F1000751F1000161
:104DA000A2FB05631EEB060E57F1000751F100014F
:104DB000FF1851F10001C01951F100014CBF4FF42F
:104DC000806E4FF4007E10EB0E0051F1000148BFE1
:104DD000641C01D4400049415FF44077FF37E41B75
:104DE000DEBF00210020BDE8FC8117F58067BC42D2
:104DF0000DD24FEAD02040EA41504FEA41014FEA3C
:104E0000113141EA045141EA0801BDE8FC8100206A
:104E1000FF21C900C91D090551EA0801BDE8FC814F
:104E20002DE9F84F00298346009106DD02460098DF
:104E30000021401E42F8041BFBD10098DFF8C88017
:104E4000DFF8CC900028C8F800B012DD2F48009C95
:104E50000768002537F8020B38B1D9F80000AE001A
:104E60003158002088474BF80600641E05F1010503
:104E7000F0D1284F41460120D7F80080C880B8F112
:104E8000000F22DD4FF0000A00980127002817DDEF
:104E9000ABF104060446002556F8040FB0F1FF3FBD
:104EA00004D0D9F800106958884730600021B0F16B
:104EB000FF3F08BF01212D1D641E01EA0707EBD14A
:104EC00037B90AF1010AC245DEDB04A006F0CAF8D0
:104ED0000D4900200860BDE8F88FC0467864632E55
:104EE00072756E74696D652E537461727475703A63
:104EF00020276D617850617373657327206578632F
:104F0000656564656400C046741C00209CCE00008A
:104F1000A0CE000098CE00002DE9F84F0F46824643
:104F200002F00106C2F34009C2F3800806F0F7FD63
:104F3000334C03258346B7F1FF3F0AD1D4F88010E4
:104F4000504606F083FB00280CBF276FD4F8807012
:104F500005E039465046002204F0F4FB0746002FD6
:104F600048D097F8370030F07F0042D0D4F8800066
:104F7000B84212D0504639464A46434601F0BCFE7C
:104F8000002836D0207D012831D004282FD004F10C
:104F9000B400022106F0D9FD29E097F8371001206E
:104FA000002E00FA06F040EA010087F8370014BF2F
:104FB0001448154805F072FBB8F1000F0ED097F8B1
:104FC000370040F0080087F837003E69C4F84461B4
:104FD00094F8500140F0010084F85001B9F1000F3D
:104FE00005D0216F50464A46434601F085FE832591
:104FF00000E00425584606F06AFD2846BDE8F88F13
:10500000B02C00200100020401000104F8B50146A3
:105010000888A0F6020058B143F20402801A04D0B6
:10502000401E64D191F8246000E00226CF6901E0BF
:10503000CE7B4F69002F5AD000213C1F052244F23D
:105040003805084654F8043FB3F1FF3F4FD01B0426
:105050001B0C9D4206D0521E01F1040100F101001B
:10506000F0D144E08446BCF1050F40DA7A58224B77
:105070003046C2F30344401F17D01E49401E0FD0D4
:10508000001F0BD0801E07D0C01E0AD00F381ABFD9
:10509000191C6031091D04E0091F02E0083900E015
:1050A0000C390868C0F3834003E019460868C0F370
:1050B00003200F2806D0A04217D922F4702242EA1A
:1050C000004210E0761F0AD0761F08D0761F06D067
:1050D0000F3E1CBF22F4702242F4802203D122F43E
:1050E000002242F4E02247F82C200020F8BD0120E5
:1050F000F8BDC04604110050201300502DE9F843BC
:105100009946904604460E1C44BF0020011C68D4FA
:1051100006F017FD054631468022204604F012FBBA
:10512000071C04D097F8370030F07F0003D12846E1
:1051300004F004FE53E097F8370010F00F0F46D14B
:1051400000200A2107F1200640EA090941EA08087F
:1051500096E8030008EA000019EA010608BF0028E3
:1051600020D0284604F0EAFD07F1200003C804F12E
:10517000700604F1700508EA000809EA010986E8EA
:10518000000395E80C0007F1200696E8030007F1FC
:1051900020059943904385E80300703494E80300A8
:1051A000BDE8F8831048B968884202D0B968A166A2
:1051B000B86004F1600080E80003284604F0BEFDFA
:1051C00004F140004FF0FF3106F0E5F9E5E728462D
:1051D00004F0B4FD97F8370010F00F0FFAD1022059
:1051E0000021BDE8F883C046D98300002DE9F843CB
:1051F00006467468B56806F092FCD4F88810002959
:1052000063D00F4606F063FC2968486820F002006E
:1052100048602968486A20F0030048626869D4F849
:10522000A8302969084359680968C1F80405296844
:10523000486920F00100486128684FF00108C0F873
:105240002080304605F066FA7E6806F068FC8146EC
:1052500094F8E00078B116F0704F06D12EB1062018
:1052600004F068FC042004F065FC022004F062FCF9
:10527000002084F8E000484606F029FC387C01282C
:1052800004BF022038742969D4F8A83068694646FA
:10529000084306FA00F158680068C1622868B0F156
:1052A000804F14BF0B490C49D4F89020D4F88C00DF
:1052B000896880188904A0EB9150401E386004F181
:1052C000380006F044FCBDE8F88306F000FCBDE8B9
:1052D000F883C04600050020300400202DE9F04787
:1052E0001E46904689460746B6F1FF3FADF1480D90
:1052F00009D046B1314909AB6846324605F05AFA41
:105300000220694601E0002103200C918DF8340051
:105310002B4DCDF83C902C68CDF8408006F046FB34
:10532000EFF3118A2025E4190B9085F3118842468A
:105330004946384605F0C8FC031C33D1002E04BF93
:105340008AF31188002036D006F010FA0B99064631
:1053500009A88861204609A906F00AFB0B9804F009
:1053600007FD9DF834000024022802D10C9802F0B9
:1053700019FF8AF31188304605F030FAEFF31183F4
:1053800085F311880C9810B106F003FC0C940B986F
:10539000846183F311889DF83400002814BF0E9BAC
:1053A000231C07E00C9818B106F0F3FB00200C90CA
:1053B0008AF31188184612B0BDE8F087F1A4000006
:1053C00048CE00002DE9F0430D46334A31490646E8
:1053D0002B46ADF1240D04F028FF0028306108BFF2
:1053E000012053D04FF00108002486F814802B4888
:1053F000B461A84203D1684605F0ACFF6D46A946EA
:10540000274D2868274601E07F1C2868B84229DC20
:105410002448B168244A006800291AD4B16840467B
:1054200017468840F060B168B86906F095FA3064B4
:1054300006F09CF9EFF311850746202080F31188D0
:10544000304605F07BFF85F31188384605F0C6F934
:1054500006E01146F46040183064314605F0A0FDC6
:10546000204613E0B06B40F827406968FB0003EB6F
:10547000071040184268002AC6D030464946904777
:10548000484605F0C5FD0028BED0B81C09B0BDE8EF
:10549000F083C046F5AF000065820000981B002035
:1054A000CCCD000060CE0000B8190020F8B506F0A1
:1054B000E1F902F055FB06F0F5F9054605F00C00A0
:1054C0000C2853D0E80826D204F0E6FF2A4E3768AD
:1054D00004460120014605F056FC316861438842CC
:1054E00019D22649F020B0FBF7F0241A887C18B1B5
:1054F000C868A04238BF041C214D2146284606F04A
:105500004AFB284605F06AFF0120FDF73DFA2846D0
:1055100005F0CAFB2CE0280928D21A4806F06EF9DB
:105520000428FAD0184A690905D220B1116810463A
:1055300021F0010103E01046016841F00101016022
:10554000983210684FF0805540F003001060D5F895
:10555000B8018169202088470C4CD5F8B8712068C3
:10556000B86B804701202060206801E006F0C7FA90
:1055700006F086F9F8BDC04640CE000038CC0000E9
:1055800070150020004003408C2108402C20094069
:1055900038B52F4C0D46A80849D2E80856D305F077
:1055A00033FFA060606804F170050146286878B197
:1055B0000069054651B18D4208D0296AC90803D354
:1055C000C36904210022984701206874294661605C
:1055D0004868204900780860022004F08FFC112000
:1055E00000F0F6FD01201C4D2075287810B90E2022
:1055F00000F0EEFD60684168886808B9C86810B1BD
:10560000164806F01BF81649164D072000230860BF
:10561000296815482B606A686B60144B2A68A3617F
:1056200040EA02011920296006F07BFA38BDFEF736
:10563000E5FC204600F17801096811B902F022FD6D
:1056400038BDB43045F0020106F07FFA38BDC046DF
:10565000B02C0020D02108407ECD0000510007066C
:1056600000000460141004400A000040D937000014
:105670002DE9F0470D4606465FFA85FA280824BF53
:105680002E4845402E494FEA8A03C85885EA000251
:105690003240C2F300672B4A06EA0504B0432240B9
:1056A00006F4E0240243B4F5E02F01D1500E14D3E8
:1056B00006F4E020074310D002F4E027B7F5A02756
:1056C00007D0B7F5803704BF22F4003242F4A0229D
:1056D00003E022F4803242F4C022DFF86C80CA502A
:1056E00008F1D00739680122002002FA0AF40C42BE
:1056F00018BF101C5FEA000906D1F00D04D3414623
:10570000C5F3805001F80A00300E0BD306F007FAFB
:10571000290E34BF0021211C3A68A243114339608D
:1057200006F0D5F9B9F1000F06D0F00D04D34046CC
:10573000C5F3805100F80A10BDE8F087006000A0B2
:1057400000100840007F077F00200240F8B50F1CC2
:10575000054637D106F00AF8EFF3118406462020FB
:1057600080F31188287D012811D1284606F069F8B8
:10577000286C06F05FF820B12849EA684868904331
:105780004860A86918B1C06808B106F002FA287D1F
:10579000022808D1A86930B106F053F8A869C0689A
:1057A00008B106F0F6F9287D032803D0284604F056
:1057B000F5FC02E0284606F044F884F311883046F0
:1057C00005F00CF8012F27D0686AB0F1FF3F03D035
:1057D000296AEA6905F0E2FF022F1DD0104C20680B
:1057E000032F19D0002817DD002F14BF3F1F071CFF
:1057F000002F0BDD002660688019416909B1284639
:1058000088477F1E06F11806F5D1206882000548FA
:10581000A96B006805F0C2FFF8BDC046B8190020AA
:10582000CCCD000068CE00002DE9F04115460446BD
:10583000A869A060686A98460E4608B92C480068B6
:105840006062286A002806BF2A480768071C06F01D
:105850006BF8EB6983B918B1C1194742491E0F4073
:10586000E7610246E169606A434602F031F820626E
:10587000A8B90120BDE8F081002804BF2362391CCB
:1058800009D04142C018401E084020623F1AE86912
:105890003F18E7613940E1614FF0FF306062A66276
:1058A0002869E06268692063A86A6063A88D01289E
:1058B000A08703D11149C868401CC860104800681F
:1058C000002808DD81000C4800680022434606F0ED
:1058D0007FF8A06348B120464146FFF773FD0028DA
:1058E00014BF801C0020BDE8F0810220BDE8F081DB
:1058F00070CE000074CE000068CE0000B819002001
:10590000CCCD000080B50288A2F602073FB143F279
:105910000502BF1A14BF002290F8242000E0C27BC9
:105920002D482430D0F88832521F0B6048D0521EC8
:105930003CD0121F30D0921E24D0D21E18D00F3A65
:105940000CD0D0F890224A60D0F894228A60D0F827
:10595000BC0220F0784040F080503AE042694A6052
:10596000C26A8A60406C20F0784040F0704030E0BD
:1059700002694A60826A8A60006C20F0784040F0D8
:10598000F04026E0C2684A60426A8A60C06B20F03C
:10599000784040F0C0401CE082684A60026A8A6039
:1059A000806B20F0784040F0A04012E042684A60EE
:1059B000C2698A60406B20F0784040F0405008E0B7
:1059C00002684A6082698A60006B20F0784040F08B
:1059D0002050C86080BDC046A01000502F4970B54F
:1059E0000EC9ADF1500D11A880E80E00002118225B
:1059F00008230BA805F0AAFF294D0BA905F15404B3
:105A0000204604F05FFD00212422082302A8EC6058
:105A100005F096FF05F16806002401223046214971
:105A2000079402ABADF8184004F088FB3C22082331
:105A30002E61214605F18C06304605F0B1FF4FF48A
:105A400080600321C5F8AC003246234605F1A4006E
:105A5000016074301449C5F8A80005F1C80003F0CE
:105A6000CFF9E868124C0C2211A9119024340420BB
:105A7000129001201390204600F094FE684605F035
:105A8000D7FFA4F1080100910C340849019405C81E
:105A900081E8050003F02EF814B070BD64CD00005D
:105AA000500B00209FBA0000E1140000FC190020F8
:105AB00078160020F8B5344CE06902210025114029
:105AC00015EA030708BF00290DD14FF0E247154042
:105AD0001F4008BF002D50D002F094FB4FF0FF3064
:105AE000E0800A214AE002F08DFB4FF0FF30E080B9
:105AF000B4F83601B0F5505F05D043F20141814260
:105B00003BD107213AE094F8F40104F5F877032833
:105B100033D1A08D012813D094F8420110F08000F9
:105B200003D094F8300001280AD094F832000128FC
:105B300004D094F8310001281FD1D2E708211DE0DC
:105B40002278387A164607F10901801B84F89C02F6
:105B500004F5227000F026FE94F89C2204F29D20A9
:105B6000B919093100F01EFE94F93300676B84F80F
:105B700090022946C4F8947200E00621E26812B14E
:105B800004F522709047F8BD681000202DE9FE4F03
:105B9000DFF8C8804FF0000B994616464546019144
:105BA00005F170073C688DF800B003F0F7FF5FEA7D
:105BB000000A0BD13A684AB1D8F88010304600F09C
:105BC00061FB18B101205C468DF800009DF90000D2
:105BD00088B9BAF1000F18BF544600E02C4654B102
:105BE0002568304621462A4600F04CFB0028F5D0B7
:105BF00002208DF800009DF9000050B9019831464F
:105C000002F07CF9041C04D0A6421CBF04208DF8CD
:105C100000009DF90000B0B9ACB9F1687C68087B60
:105C200000F00F0002280ED1087BC01140080AD2F4
:105C30007CB9D8F8800030B1D8F8801030465A4688
:105C400000F020FB28B19DF90000C9F80040BDE834
:105C5000FE8F6FF00200BDE8FE8FC046B02C002022
:105C60000FB4324800B5017D80F8A111002380F8FF
:105C7000943180F82432417D80F8A211C18A80F8E5
:105C8000A4110A1280F8A321018B80F8A6110A1230
:105C900080F8A521C16980F8AA110A0E80F8A72111
:105CA0000A0C80F8A8210A0A90F8201080F8A9218F
:105CB000ADF1040D80F8AB11102180F8A011022184
:105CC00080F825121421C0F8281205F08FFCFEF789
:105CD0004BF810B106A005F0C5F9FEF75DFB10B159
:105CE0000AA005F0BFF901B05DF804EB04B07047FD
:105CF000456173794C696E6B5F7472616E736D6927
:105D000074206661696C656400C046C04561737942
:105D10004C696E6B5F726563656976654173796E18
:105D200063206661696C656400C046C02005002080
:105D30002DE9FE4F304C94F8B901002850D00026D0
:105D40000121354694F8B92101FA05F0104203D13A
:105D50006D1C032DF6D343E094F8B9211020A84020
:105D6000104218BF0E1C05F0DAFE94F8B92111217B
:105D7000A9408A4384F8B92105F0A9FEE8B205F0EC
:105D800075FB68B3877A5FB390F909801949076892
:105D9000012E456851F828B0019710D0017A0229E8
:105DA0000DD100F1100191E8000600274FF080535B
:105DB00017EA0A0703EA090108BF002901D101F027
:105DC00021FC012E05D0CDF800B000224FF0006379
:105DD00003E000224FF00073009201984146A8476B
:105DE00094F8B90120B104F1E800002105F0ADFEFE
:105DF000BDE8FE8F94300440B02C00201EF0040F4C
:105E000014BFEFF3098169468869EFF3118102B489
:105E100000B5DFF8A0E0F047294A116801EA000068
:105E200010605DF804EB1EF0080F03D101BC80F395
:105E30001188704704BC1EF0040F14BFEFF30981F2
:105E40006946A1F1200114BF81F309888D464A609B
:105E50004FF08070C8611B488861194B1868086052
:105E600040F201101860704702B401B4EFF31481DE
:105E700000291CBF002282F3148802B402B4DFF8A8
:105E800038E0F04701BC01BC00281CBF022181F3AF
:105E9000148801BCDFF824E0F04705484FF080513A
:105EA000016001BC80F3118800BF00BFFEE7C0465F
:105EB00004ED00E0B588000049BA0000C9BA00004E
:105EC000541A0020695E00002DE9F0410E46074695
:105ED000B6F1FF3FADF1380D09D046B12B4909AB02
:105EE0006846324604F066FC0220694601E0002163
:105EF0000320274C0C91EFF3118825688DF83400AE
:105F00002024ED1984F31188788980BB002E04BF0A
:105F100088F31188002036D005F028FC064605F0ED
:105F200045FD0B9009A9816103F022FF284609A9CC
:105F300005F01EFD9DF834000025022802D10C98C2
:105F400002F030F988F31188304604F047FCEFF393
:105F5000118384F311880C9810B105F01AFE0C958A
:105F60000B98856183F311889DF834000BE07889E4
:105F7000401E78810C9818B105F00BFE00200C90A3
:105F800088F3118801200EB0BDE8F08175A50000EE
:105F900058CE0000F8B5304C04F170052F68012090
:105FA00000F0BAF8D4F88000002852D1002F4BD06E
:105FB00060683969884244D1684602F0EFFA40B11E
:105FC000009830B1D4F8840018B9082003F0CCFD53
:105FD000F8BD082004F066FF07F1180003C81D494A
