:020000040000FA
:10000000F82C0020F10C0000250D0000830C0000EE
:10001000230D0000230D0000230D00000000000050
:10002000000000000000000000000000230D0000A0
:10003000230D000000000000230D0000230D000030
:10004000230D0000230D0000230D0000230D0000F0
:10005000230D0000230D0000230D0000230D0000E0
:10006000230D0000230D0000230D0000230D0000D0
:10007000230D0000230D0000230D0000230D0000C0
:10008000230D0000230D0000230D0000230D0000B0
:10009000230D0000230D0000230D0000230D0000A0
:1000A000230D0000230D0000230D0000230D000090
:1000B000230D0000230D0000230D0000230D000080
:1000C000230D0000230D00002DE9FE4389468046E4
:1000D000284F38684169062088473868416B0620F8
:1000E00088470128F9D13868C1694FF4A060884772
:1000F0000125214E214C356020688008FCD33868EA
:10010000C1694FF480708847356020688008FCD34F
:100110001B4EA6F10C01086820F00F0008600320B8
:100120003060184D184928680022082713460468D3
:10013000CDF800804FF080400197A0471348103859
:10014000006809224FF0FF333946446CCDF8009027
:100150004FF08040A0471C3E306840F00200306005
:100160002868026902A94FF0804090470028F7D123
:10017000BDE8FE83B8010010282008602820084050
:1001800020000040C4010010006CDC02C40100101B
:10019000F8B5104D2868016A4FF480708847012631
:1001A0000D4F0E4C3E6020688008FCD32868016A21
:1001B0004FF4A06088473E6020688008FCD3286820
:1001C0008169062088472868416B062088470228F5
:1001D000F9D1F8BDB8010010282008602820084097
:1001E000BCB50F460546B7B10C4C206882680021AB
:1001F0004FF08040904710B94FF0FF300CE020687E
:10020000C26869464FF0804090479DF80000287012
:100210006D1C7F1EE9D10020BCBDC046C40100108A
:100220007CB50C4606467CB1084D2868317842689A
:100230004FF0804090472868C26869464FF0804080
:100240009047761C641EF0D100207CBDC4010010D4
:100250001CB5064C04F10C000068026969464FF0B9
:10026000804090470028F5D11CBDC046B801001061
:100270002DE9F041404C444D8046C8F38140401E7A
:1002800002D0401E2AD025E0284620300168880C84
:1002900020D24FF4804020603848D0F802204B0A2A
:1002A000C1F3033703F0800322F08F02134347EAC0
:1002B0000302C0F80220D0F801300E1266F30303E7
:1002C000C0F80130026801F0E70722F0E70247EAD0
:1002D000020102E04FF00041204601602C4E301D2B
:1002E0000068C0F3C0070FB94020A0624FF400704F
:1002F000206400F0EBFB40F0300084F8C800C8F345
:10030000815040B3401E03D0401E1FD002211EE08A
:10031000012000F005FB07460420394600F05CFA96
:10032000042000F0FDFA8742FAD1361F366826F025
:100330007F4000F0C7FA12480068036807214FF0B9
:100340006022300E98474FF4806020600321042023
:1003500000F042FA06E00420012100F03DFA0948CD
:1003600000F0B0FA2846094F006800F03F0084F81A
:10037000CB0F3868BDE8F08140A00C400A6008400F
:10038000B4010010BD3786006C1300502C200940CA
:10039000AC3F00507CB50546084600F0E9F9364E02
:1003A00002461821304600F0A5FA00F02DFB344932
:1003B000103909684C6840F2FF32002380B22C21CA
:1003C00000903046A04700F089FB1C2102463046D1
:1003D00000F090FA00F00AFB02461421304600F0CB
:1003E00089FA00F037FB02461021304600F082FA0D
:1003F000284600F089F902460C21304600F07AFACE
:10040000284600F00FFB1D4C400040F020002070FB
:10041000284600F013FB40F010002070284600F042
:10042000ABFA02462821304600F064FA284600F074
:100430001DFB400040F06000E070284600F022FB09
:10044000C00040F0800004F8080C284600F026FBAD
:10045000800040F47C40A4F89300284600F076FA2F
:1004600002460821304600F045FA4FF48000A4F21D
:10047000091108607CBDC04600A00C4049A10C4099
:10048000B4010010274A2DE9F04180460125264895
:1004900015600768002FFCD0244CC020254920603F
:1004A000081F03689B0806D250F8040C204B000C70
:1004B00040F0F0001870002010630E68304600F025
:1004C00097F840463146FFF765FF1B49886D40F2BB
:1004D0001E226FF31F40824215D90868020E12F0E7
:1004E0000F0F02F00F01C0F3034018BF491E072889
:1004F00005D006280EBF0720801C00F00F0041EA3F
:1005000000110E4801703046FFF7B2FE0C4800683B
:10051000C16802208847402020600A4F3D60BDE846
:10052000F081C046101009409402224300600C4044
:1005300056620840B43F0050BC12005002600840B0
:10054000A001001094046042264838B56030046869
:10055000B4F1FF3F08BF002400F0ACFA2248234B5F
:10056000002501211038056003F15C00016014488A
:10057000016000F061F91348006820B1124800687A
:100580002046FFF77FFF114811490560114C0A68AA
:100590006FF35B4244EA020008600F490868C0F349
:1005A0000130012806D10A680C48104040F400329E
:1005B0000A6008600A4908680028FCD138BDC046B6
:1005C0000822044380012843000120438C21084075
:1005D000482003400000390104000940FFFFFCFCF3
:1005E0000C006842BC1200509404604200600C4051
:1005F00070B5234C234D0646B00E11D2700E0FD3AA
:10060000802020744FF6D801A4F85110207000F01B
:1006100041F8D0352868C0F30420162806DB04E032
:100620002868C0F30460162800DB203800EB267031
:10063000401C162805DA10F10A0FB8BF6FF0090048
:1006400000E01520104D00F01F0040F4F850A4F811
:1006500059002868800803D20C490020086001E096
:1006600046F040660A49F00EB50E80F0010000F039
:100670000100086085F0010000F00100886070BD95
:1006800015620840B81200500000094094042A4343
:1006900000002043184870B50068C0F304601628B5
:1006A000A8BF2038154B0146187800F01F00162807
:1006B000A8BF203881421ED0114E124C00220125C5
:1006C00032600A1A022A05DC12F1020FB8BF6FF07D
:1006D000010200E002221018226800F01F0242F41A
:1006E000F852A3F8662081422560EAD1206825608F
:1006F00020683560206870BD88130050066208408D
:10070000980020432C20094038B51849164D04465E
:10071000143909686868C1F30342C1F30353400800
:1007200012D22868050513EB257303D4102BA8BF3C
:100730000F2300E00023000412EB207203D4102AE0
:10074000A8BF0F2200E0002242EA031201F47F401A
:1007500001F0FF03222C40EA024243EA020024BFD8
:1007600001F08041084338BDAC3F00508C1300506D
:100770000146184880B53C3800688A0CC0F383678E
:10078000C0F38F2022D241F3072100290BD54A4222
:100790000021400805D17F0806BF0127381C4FF60D
:1007A000FF70521EF5D1002910DD4FF6FF72400098
:1007B00040F00100824207D2780040F001070F2F7D
:1007C00092BF01200F27101C491EF0D140EA0740BC
:1007D00080BDC0468C1300502DE9FC41144C154FD0
:1007E00006468846700809D3206845680021012222
:1007F0000B461FFA88F000903846A847B00809D386
:10080000206845680021022201231FFA88F0009029
:100810003846A847F00809D320681FFA88F6002157
:100820000C220223446800963846A047BDE8FC81AC
:10083000A401001000A00C400F4908680028FCD15A
:10084000104A131D0D49186820F0030001430C489D
:100850000068C0080CD2106810F0030F0AD041F0F5
:1008600003001860106800F003000328FAD101E0CB
:1008700041F00101196070470C006842040000203B
:10088000B03F0050004003400D4908B5D1F8780250
:100890000B68020F03F0FF03802B28BF002300F03A
:1008A0007BF801464FF0FF30012907D1111C04D01D
:1008B000891E04BF143358B208BD0A2008BDC046C3
:1008C000A01000500949020480B5120C41F8082C10
:1008D000C0F3074041F8040C012008600448076891
:1008E000002FFCD00020086080BDC04644600C4052
:1008F00084088C43B0B515460C1800F0F7F80027B3
:1009000000B90127054A394610680028FCD0256047
:100910000120106009B100F0EFF8B0BD00800C407C
:1009200002460849084810B5042A07BF4FF0C042E4
:100930001D234FF080521C230968CC683421A04746
:1009400010BDC046A401001000A00C40202838BFF4
:1009500007480CD307480C3001680803821592053C
:1009600000F47C1001F00F01104340EA01307047A1
:1009700000803F408C130050202838BF002008D34F
:10098000044810300068C10C01F44071C0F3845079
:100990000843704788130050054800684BF6BE11A5
:1009A0000001B1EB104F14BF4FF0FF300120704732
:1009B0001813005008B5044B1B689B699847034AFD
:1009C0000021116008BDC046A801001084046042E7
:1009D000044908B5096849698847034A002111603C
:1009E00008BDC046A80100108404604205481838BC
:1009F00001680348084001F07C4108437047C04645
:100A0000FCFCFC008C130050054938390868096863
:100A1000C0F3870001F0030140EA01207047C0469F
:100A200088130050222804D303480068C0F30070E4
:100A3000704701207047C0468C130050222804D311
:100A400003480068C0F34070704701207047C046FB
:100A50008C13005004481C38006800F47C0100042A
:100A6000000C08437047C0468C130050202805D363
:100A700003480C300068C0F30150704700207047F5
:100A80008C130050222804D303480068C0F3C060D0
:100A9000704700207047C0468C130050222805D3B1
:100AA0000348001D0068C0F34550704700207047A0
:100AB0008813005008B5FFF76FFF012803D1FFF737
:100AC000E3FE142800DAFEE708BD00000248001D1E
:100AD0000068C0F3C14070478813005002480C38CA
:100AE0000068C0F30D00704788130050EFF31080CA
:100AF00072B6704700207047EFF3108062B67047FF
:100B000000207047002A4AD05FEA000C8B071CD1F6
:100B1000830722D1102A08D370B4103A78C978C05C
:100B2000103AFBD270BC103238D0042A2CD3082AD9
:100B300005D30C2A24BF08C908C008C908C008C9C1
:100B400008C092072AD0920F22E00B780370491C4C
:100B5000401C521E22D08B07F7D1C30714D1830744
:100B6000D8D0121F12D308C903801B0C4380001D6C
:100B7000121FF8D20AE008C903701B0A43701B0A4F
:100B800083701B0AC370001D121FF4D2121D05D002
:100B90000B780370491C401C521EF9D16046704707
:100BA000002213460A46194671B510F0030F0BD008
:100BB000002A82BF00F8011BB2F1010210F0030FFE
:100BC000F6D1002A08BF71BD11F0FF0141EA0121F1
:100BD000042A18D341EA0141082A0FD30E46102AED
:100BE00008D30C460D46B2F10F0312F00F0272C08B
:100BF000103BFCD812F0080F18BF42C012F0040FCF
:100C000018BF40F8041B12F0020F18BF20F8021B97
:100C100012F0010F18BF017071BDF8B5844640F69F
:100C2000FF741CF8013B002210E0481B401E10F826
:100C3000015B7F1E01F8015BF9D103E01CF8010B99
:100C400001F8010B521C5B08082AEADA5808F5D2B1
:100C50001CF8010B1CF8015B05F00F07FF1CC5F326
:100C60000315122F45EA001508D11CF8016B300A54
:100C700024BF1CF8010B60F3DF16BF19AC42D4D1BE
:100C8000F8BDFEE7B0B50C480C4DA84210D00C489A
:100C90000C4CA0420CD0001BC71054F8040B10F8E9
:100CA000011B55F8212054F8041B90477F1EF4D1F6
:100CB00000BF00BFB0BDC046640D0000580D00006D
:100CC000880D0000780D0000084808B580F30888FA
:100CD00000BF00BF00F021F808B1FFF7D3FF0020EC
:100CE0001EF0B8FA012000F01AF808BDF82C002018
:100CF00008B5FFF729FCFFF7E7BFFFF7C2FF08BD04
:100D0000D0F80320C31D08461946FFF7FBBED0F8F4
:100D1000032008460021FFF747BF0120704700BFAE
:060D2000FEE7FEE7FEE71E
:100D280000002000C215000000001000C2140000DE
:100D380000000800EF12000000000400EF1100009E
:0E0D4800000000000000000090FFFF00050604
:100D58001B0C0000010D00000F0D0000000000003A
:100D680002000000141000000001000000FFF00065
:100D7800680D000000000020700D00001410002015
:10101000004C002039B40000F9D30000F9D30000DF
:10102000F9D30000F9D30000F9D30000F9D3000090
:10103000F9D30000F9D30000F9D30000F9D3000080
:10104000F9D30000F9D30000C5D9000030B5ADF1E7
:10105000540D1390139818B99C480CF037FF04E016
:1010600013989A491DC881E81D009948007858B125
:1010700098480068002105F0BBFE08B90920FFE18F
:101080009548006804F020FB94480078B8B994486B
:101090000CF04EFF92494FF47A6008609148006866
:1010A00050B19148006838B18E4890490068086096
:1010B0008D488F49006808608849012008708E4873
:1010C0008C49006808608D481C22002107F0E4FE6E
:1010D0008A4943F605000880A3496FF04F00087065
:1010E000A249087820F00F000870A148A0490078B4
:1010F00020F00F0040F003000870A349087840F08A
:1011000001000870A049087840F0080008709E4966
:10111000087820F0100008709C489C49007820F066
:101120000F0040F004000870994944F62060086000
:1011300066480078002832D10BF07AF9052807D1EB
:101140009E499D483CC93CC01EC980E81E0008E07D
:101150009A4999483CC93CC01CC91CC00EC980E8CA
:101160000E00984996481CC91CC00EC980E80E00A4
:10117000964995481EC980E81E0096489449006823
:101180003CC83CC13CC83CC11DC881E81D00934916
:1011900091481CC91CC00EC980E80E00FAE04B48FB
:1011A000007801282ED10BF043F905282AD08C486D
:1011B000814900683CC83CC11CC81CC10DC881E8FD
:1011C0000D00A9487E4900681CC81CC10DC881E8F3
:1011D0000D00A6487C4900681DC881E81D007D48B7
:1011E0007B4900683CC83CC13CC83CC11DC881E883
:1011F0001D00A448784900681CC81CC10DC881E8BE
:101200000D00C7E03148007802282ED10BF010F90C
:1012100005282AD09C48684900683CC83CC11CC8C5
:101220001CC10DC881E80D008F48654900681CC8C5
:101230001CC10DC881E80D009448634900681DC8B1
:1012400081E81D006348624900683CC83CC13CC855
:101250003CC11DC881E81D008A485F4900681CC860
:101260001CC10DC881E80D0094E0184800780328DF
:1012700046D10BF0DDF8052842D185484E4900687B
:101280003CC83CC11DC881E81D0077484C49006836
:101290001CC81CC10DC881E80D007E484A49006881
:1012A0001DC881E81D004B48494900683CC83CC145
:1012B0003CC83CC11DC881E81D0072484649006811
:1012C0001CC81CC10DC881E80D0063E0901E002001
:1012D000253A0020E01D0020DC1D0020273A0020D8
:1012E000601D0020941E0020981E0020741D002008
:1012F000781D0020D81D00209C1E0020F01C00201E
:1013000074480078042835D10BF092F8052831D0C4
:101310006148294900683CC83CC11CC81CC10DC8B3
:1013200081E80D005048264900681CC81CC10DC842
:1013300081E80D005948244900681DC881E81D0056
:101340002448234900683CC83CC13CC83CC11DC876
:1013500081E81D004B48204900681CC81CC10DC80D
:1013600081E80D0016E0C046011D0020FC1C002095
:10137000FD1C00205848006818B15748006808F064
:101380005DFF02207CE0C046001D0020071D0020FC
:10139000081D00204248007810B10B490520087054
:1013A00040480949044A4D4B01F0D8FC4C490860BB
:1013B0003D498820088015E0D81B0020E036002039
:1013C000E81D002090380020801E0020C439002035
:1013D000A81B002048350020001E0020C038002037
:1013E0002035002032483149086032490120087018
:1013F000304801783048007861F345002E49087084
:101400002E49087840F0800008702E482C4908606A
:101410002E482D49086002204FF0E2418DE803007C
:101420002F4831490068002200230BF0B9FC2849FD
:101430000020086002A80CF008FD0BA80CF074FC5A
:1014400025480068A0B9002002A90BAA0AF03EFFB7
:10145000214908602048006808B9032010E01E48B0
:10146000006808F0EBFE07E040350020083500205A
:101470001948006808F0E2FE1A49012008700020AF
:1014800015B030BD44350020243500200C35002037
:10149000343500201C350020303500201835002060
:1014A000283A002090150020C01B0020CC1B0020F3
:1014B00008390020243A0020C41B0020B61B00205D
:1014C000D01B0020241F0020D41B0020F01E002071
:1014D0002C3A0020901E0020E01D0020601D0020FE
:1014E000DC1D0020253A0020E81D00202DE9F843EE
:1014F000DFF828830F460446F80B80F07481DFF88C
:101500001893B80F80F02D81C54DB80880F0228166
:10151000F80A80F00081B80B80F0EE80780B80F044
:10152000C080380C80F0AF803809C0F07F8108207F
:101530000CF0A2FF002840F0A18080200CF09CFF5E
:10154000002840F09B80684606F0D2FD012803D1B8
:101550000098002800F0928000240125E0B20CF0F1
:10156000FBFC48B1867A3EB1857290F9090005FA14
:1015700000F0C0B20AF0A6FD641C032CEED34C466A
:1015800003202075606878300DF018F9AB4800260C
:1015900001680660AA4950F8082CB146324640F866
:1015A000089C04F138000DF013F930460BF074FE7E
:1015B0000CF0A0FC0146A268E069891A090BC1F190
:1015C000FF3282422CBF08444FF0FF30E06194F8B4
:1015D00020601EB12169B0EBC12F1FD90BF0CCFEEA
:1015E000494600B12946081C14D0964840F6090126
:1015F000018049464180427B65F303024273027BCE
:1016000061F30302027341600CF0C8FD418811F4DC
:10161000406FFBD084F820504946E1610AF07AFA25
:1016200089484D464946056002200BF0AFFC022078
:101630000AF02EFD112005F0C9FD207818B9606868
:1016400040300DF0CDF88148007810B90E2005F03B
:10165000BDFD94F8210020B184F8215005200AF046
:1016600017FD7B48B4F98C60A061B4F98E10257524
:101670008E4214BF0220072007F0C8FA27F008079F
:1016800008F0CCFBD2E00835296839B1C868408839
:101690000028FBD0C86840880128F7D027F400470D
:1016A000EEE70AF023FB38B12046A4696FF480719D
:1016B00000224FF00073A04768494C46002204F115
:1016C00038000DF085F80220E66820750CF012FC59
:1016D000D4F81C21636804F58E719A4214BF01226C
:1016E000002226B1801B01EB8206030BB3600020B1
:1016F00027F48057E060C3E74046066846B1B0680B
:1017000030B13069B6F93410B46800222023A04704
:1017100027F400578AE00DF055F84C460546206F37
:10172000064688B1606810B178300DF047F830692E
:1017300060600CF0DFFBE06046484FF40061A061A0
:1017400004F1B4000DF054F828460DF013F827F416
:1017500080676BE002F0A6FE286808B927F0020750
:1017600064E00DF02FF8054604200BF011F9C8B124
:10177000207CB8B148460830006898B106460CF0A5
:10178000B9FBE168801BE060000B8842E06002D298
:1017900040184008E06040F6C41181422CBFB0F50B
:1017A000967FE16028460CF0E5FF0AF09FFA80B1D1
:1017B000A56920466FF4807100224FF00073A8479E
:1017C00025480068002808BF47F0020701D008F04C
:1017D00025FB2046646900214FF080630A46A0473C
:1017E00027F0005722E00CF0EDFF41460E68CEB125
:1017F000B16A890816D2B56AB16AA943B1620CF020
:10180000B9FFB06880B17DB13069B6F93410B46801
:101810002A460023A04707E0200D0020A80D002045
:10182000980D00200CF0A6FF27F4804727B1404612
:1018300039462C300CF0DCFFBDE8F883141004406E
:10184000B5A30000301E002000000460F633010044
:1018500011630000194E0000900D00202147000088
:10186000BA482DE9F84F0025B94CB749056094F8FE
:10187000E200002800F06381012800F02F81B54EBE
:1018800002283CD0032840F05A8151F8250CD4F8A6
:10189000B8100029A0F5C060C4F8D400B8BF494210
:1018A0000028B8BF4042814226DA4FF08057D7F86F
:1018B000A4014568B4F8BC0030214FF47F420823EE
:1018C00000903046A847D7F8A4014568B4F8C00096
:1018D00004214FF4F802122300903046A847D7F8AD
:1018E000A401B4F8D070456820214FF440620A2367
:1018F00030460097A847012584F8D8501AE151F8DE
:10190000258C0CF094FD2F4600B901273946924FE3
:1019100038680028FCD0B146012609F10409D9F83D
:101920002CA03E6009B10CF088FDCAF30720C4F872
:10193000BC000CF07CFDAA4600B9B2463B68002B07
:10194000FCD0D9F800B0BAF1000F3E6001D00CF025
:1019500074FDCBF38440C4F8C0000CF068FDAA46C7
:1019600000B9B2463B68002BFCD0D9F81C90BAF104
:10197000000F3E6001D00CF060FDC9F38120C4F877
:10198000D000B8F5C061C4F8B81000F09C8094F89D
:10199000D80068B9C4F8D410D4F8C000C4F8C8009E
:1019A000D4F8BC70C4F8C470D4F8D030C4F8CC30CB
:1019B000D4F8D400D4F8BC30002854BF02226FF011
:1019C000010204F1C8010F6800EB400080184210CA
:1019D00000EB927207EBA2000860D4F8C810C4F8BC
:1019E000C43000291CDD1E293CDDD4F8CC0030B900
:1019F0003429B4BF15391E21C4F8C81025E02A299E
:101A0000BABFD4F8C8000B381E20C4F8C800D4F8F8
:101A1000C4003F28B4BF401C3F20C4F8C4001FE0EE
:101A2000D4F8CC00032812D011F10B0FC6BFD4F8A4
:101A3000C8000B30301CC4F8C800D4F8C40000281B
:101A4000C4BF401E051CC4F8C450032508E011F1B2
:101A5000150FC6BFD4F8C8001530301CC4F8C80034
:101A6000C4F8CC504FF08057D7F8A401B4F8C43074
:101A700030214FF47F424568364800930823A84739
:101A8000D7F8A40104214FF40032112345683148EE
:101A90000096A847B4F8C860D7F8A40104214FF411
:101AA000F802122345682B480096A847D7F8A401EE
:101AB00020214FF440620A23B4F8CC6045682548E1
:101AC0000096A84701E084F8D85040F2FF50404506
:101AD00002D8801C40452DD208202EE051F8251C4C
:101AE0001E4F4BF2F5204843060A3868C0F3814088
:101AF00001280AD10BF02CF909F0EEFF0CF0A3FC41
:101B00003111C010484306EBE03694F8E50030B9D7
:101B10001348006820F07F403618760801E084F80A
:101B2000E5501048310C0660012741600E4D87607A
:101B3000287808B90B2000E0052084F8E40001F0C3
:101B400055FEBDE8F88FC0462D400C402C500C408F
:101B50006430002000A00C4000800C40B43F0050D6
:101B6000102009403C600C40B13201002DE9F04FDB
:101B700009AFADF13C0D08900A92388809911E46D4
:101B8000ADF81800101C08BF002000F06C8101782F
:101B900000274FF0010B401C4FF0FF39B846DA46E2
:101BA0000A9058E1252940F04D810178401C0A90A7
:101BB0002D2918BFADF8068004D10178ADF806B024
:101BC000401C0A9030291CBF4246434604D101788C
:101BD000401C5A465B460A902A29CDF800804D46A3
:101BE00017D1049330680A9BCDF80890C01C20F0F0
:101BF0000300001D306050F8044C1978002C00944C
:101C000003F101000A9018D5ADF806A064420094D3
:101C100013E044460AE0600000EBC4004018A0F165
:101C200030040A9801780094401C0A90302901DBA6
:101C30003A29F0DBCDF8089004932E2929D10178B8
:101C4000401C2A290A9011D13168CDF80880C91C9E
:101C500021F00301091D316051F8045C002D48BFDB
:101C6000454601782B46401C0A9011E04546434604
:101C70000AE0680000EBC5004018A0F130050A98A2
:101C800001782B46401C0A90302901DB3A29F0DB11
:101C900002930AB1224604926C2904D04C2918BF41
:101CA000ADF8048004D10178ADF804A0401C0A907E
:101CB0000BA8CDF80C800FAB07906429059379D061
:101CC000692977D0BDF818C0752965D0782961D009
:101CD0006F295DD0702946D0632936D073291AD078
:101CE0000A98401E0A900998012812D961490C6887
:101CF000B5F1FF3F03D0A84288BF6D1C00D8099DF5
:101D0000029508A80AA932466B46A0473F180398D7
:101D100065E0454617E03068C01C20F00300001D58
:101D2000306050F8040CBCF1010F014608B94FA017
:101D3000014607910CF07EF90390B5F1FF3F4FD0BB
:101D4000A8424DD9039528464AE03068C01C20F0CF
:101D50000300001D306010F8040C8DF82C005D4667
:101D6000039558463CE0082035680490E81C20F0B4
:101D70000300001D306050F8041C082210230FA837
:101D800007F0B0FB401E079040210170079823E048
:101D9000082302E0102300E00A233068C01C20F072
:101DA0000300001D306050F8041CAA42BCBF2A1C6E
:101DB00004920DE03068C01C20F00300001D30606C
:101DC00050F8041CAA42BCBF2A1C04926FF00903FD
:101DD0000FA807F087FB07900599081A0390009C4D
:101DE000241ABDF8065000945DB906E008A8202129
:101DF00009AA0AF083FF7F1C009C641E0094F5D59D
:101E00000398401EB0F1FF3F03900FD1BDF80600CC
:101E100001281CD10098401E009018D408A8202149
:101E200009AA0AF06BFF00987F1CF4E70798017875
:101E300009AA08A80AF062FF0798401C07900398B7
:101E40007F1CDEE708A809AA0AF058FF7F1C0A9841
:101E50000178401C0A9000297FF4A4AE089808B1CC
:101E60004146017038460FB0BDE8F08F286E756CA2
:101E70006C2900C04C35010030B5ADF12C0D079137
:101E8000069002A80CF022F800208DF8080002A8A5
:101E9000FFF7DCF810B163A00BF06CFD082005F033
:101EA000ADFA0CF0FBFA0CF0FFFA4008FBD37548D2
:101EB00000684068014602208847714908707048F0
:101EC00000780028EFD00CF0E3FA082005F07EF946
:101ED0006B480121012204F0ABF910B157A00BF0BF
:101EE00049FD674868490078087068490220087011
:101EF0000BF0E2FA664908606648006800214FF07E
:101F0000FF324FF0FF3304F039F80890089840088A
:101F100048D30BF0D1FA09905D48099900688842CE
:101F20000ED25B4A5D495C4B099815685C4C0968A8
:101F30001A68401B4143B1FBF4F012181A600DE01F
:101F400053485649544B099D554C006809681A6816
:101F5000401B4143B1FBF4F012181A6009984C4938
:101F600008600BF0A9FF4F49088050484E4900888F
:101F700008800D200BF0C8FF0022002100B10121D4
:101F800001B901224A480270142202204549484BF7
:101F900000903D480192404A006809681B68126839
:101FA00001F06CFE0898800811D34248007858B1BF
:101FB0004149032004F082FD4048002101F0A4F8CB
:101FC00010B127A00BF0D6FC00200BF0E5F9089823
:101FD000000907D33A480078032803D139483A4921
:101FE00007F0BCFE0898C00813D33248007840B907
:101FF0003748364900780978884202DD07F0AEF8A4
:1020000007E02C48007820B922480068102107F02A
:1020100089F908984009FFF46FAF01200BF0BCF973
:102020006AE7C046456173794C696E6B5F696E699A
:1020300074206661696C656400C046C0456173794F
:102040004C696E6B5F656E61626C65527841646469
:102050007246696C746572206661696C656400C063
:10206000456173794C696E6B5F726563656976650E
:102070004173796E63206661696C656400C046C017
:10208000AD390020CC010010A01E0020A11E0020B0
:10209000281E00201C1E0020A81E0020CC34010099
:1020A000A0860100A41E0020A21E0020241E0020E5
:1020B000AC1E00202C1E002080380100617500003D
:1020C000D2170020D1170020D3170020B01700200E
:1020D000B117002000B5ADF1140D8DF808000420F3
:1020E0008DF809006F48007810B16F48007808B18A
:1020F0000120D4E09DF80800042809D09DF80800CC
:10210000052805D09DF80800062801D00220C6E069
:1021100066480068002104F06BFE20B16448B0F905
:102120000000002801D40920B9E09DF80800042827
:1021300003D09DF8080005286ED15E4940F60800DE
:1021400008805D49087820F00F0008705A49087827
:1021500040F080000870594900200860584908780C
:1021600040F002000870584856490068086054481A
:102170005349007820F00C0040F0080008709DF8EA
:102180000800042809D151494FF6FF7008804C49D6
:10219000087840F00100087008E04C494AF6AA208F
:1021A00008804749087820F00100087048484849ED
:1021B000007820F00F0040F001000870464B02202C
:1021C0004FF0E2418DE8030042483A49006800229E
:1021D00005F0C0FC364908800020ADF80C000FE087
:1021E0003E48006842F21071B1FBF0F007F0D2F8FF
:1021F000BDF80C00411CB0F5FA7FADF80C1003DC03
:10220000374800880228EBD135480088022844D19D
:1022100000208DF8090040E0324940F607000880B0
:102220003149087820F00F0008702F49087840F0F5
:10223000800008702D49002008602D49087840F082
:10224000020008702A49087840F0040008702A4803
:1022500028490068086029482849007820F00F00C4
:1022600040F0010008701C4B02204FF0E2418DE865
:10227000030018481B490068002205F06BFC0C495C
:1022800008800B48B0F90000002803D400208DF826
:10229000090002E004208DF809009DF8090005B04E
:1022A00000BDC046253A0020263A0020E01D00204F
:1022B000303A002074380020803800207C3800201C
:1022C0008238002088380020101E0020843800202A
:1022D00087380020DC1D00201DCB0000CC3401001D
:1022E0007638002038390020443900204039002059
:1022F0004639002048390020B81B0020473900200B
:102300002DE9F047DFF80CA20746AAF13500DFF807
:10231000F8810068800880F0E7800AF019FD8149A3
:1023200008310B6800261A17990D02F101020AD232
:10233000C0F13E0110F10A0F4FEAE101D8BF0821B8
:102340008A42B8BF0A1CDFF8C4C1990E0FD2590ED9
:102350000DD36446143C2168C1F304211629A8BF9B
:1023600020392468C4F30464162C0EDB0CE0634CA3
:10237000D4F87C11C1F304611629A8BF2039246860
:10238000C4F30444162C00DB203C5118A146162946
:1023900005DA11F10A0FB8BF6FF0090100E015214D
:1023A000574C584D01F01F0242F4F85222802A681F
:1023B00012F0030F18BF0126D20828BF46F002060C
:1023C0000FB146F00406424692F90740041B052C63
:1023D00004DA9479B44208BF918865D00F28A0F13F
:1023E0000F0827DB08EB0014A4F1F0084FEA282EB1
:1023F000BEF1070F88BF4FF0070E7546062D88BF48
:1024000006255CF82570042404EB850465462C59E8
:10241000E41B04F0FF05F70824BFC4F307273D447D
:10242000B70824BFC4F307473D44770828BF05EB2E
:10243000146501E00025AE465CF82EC0F7080CF0EC
:10244000FF0424BFCCF307273C44B70824BFCCF3D8
:1024500007473C44770828BF04EB1C64ADB2A8EBE7
:102460000E27B9EB010105FB07F505F1800504EB2B
:102470001524D8BF012103F0FF0334254D435D43EC
:102480004FF6FF73B5FBF4F18B4238BF191C80285F
:1024900089B2918005DA10F1800FB8BF6FF07F002C
:1024A00000E07F20D0719671194800681F291060E4
:1024B0004FF0000008D340F2FF128A4206D24908CA
:1024C000401C8A42FBD301E01F219180124F0F393B
:1024D000090940EAC10047EA0001CAF8FB1F0026CB
:1024E000CAF8FF6FBDE8F0870C490D4F424608203F
:1024F0000F60921D1070BDE8F087C0463C1100507F
:102500006E62084024220840341F00209C130050B3
:10251000082009403500094000E7A4803010094038
:10252000FDFDA400AC3F005001282DE9FE4F40F016
:10253000EE80DFF810B2DBF8DC00012840F0E48028
:102540000220CBF8DC000AF0C7FE012009F008FEEB
:102550005FEA000805D00120CBF8DC000AF0CCFED1
:10256000D7E00CF041F96C4902900020086001208E
:102570000AF00EFA012818BF002003D1002007F04E
:102580008BFB0120654900900020654F086038688A
:1025900011200BF06BFF00280CBF00240124102039
:1025A0000BF064FF08B144F002040F200BF05EFF53
:1025B00008B144F004040B200BF058FF30B162481E
:1025C00014300068574E016B308888470A200BF0A2
:1025D0004DFF002600B101264FF0805A0AF5DC7548
:1025E000301C04D02868504E016B308888474F4813
:1025F000012606602868816944F0200088474C481D
:1026000006600BF02DFF00F001010191400814D28B
:1026100048480BF0BBFE8146B9F1040FF8D0B9F180
:10262000010F05D1DAF8D8014268424803219047EA
:102630004149086820F0030008600020FFF760FEB1
:102640002B683868986B8047019801280DD0B9F144
:10265000010F05D1DAF8D801426836483146904773
:102660003549086840F0030008602C480660286877
:102670004169204688470B200BF0F8FE20B12868FE
:10268000284BC16A188888470A200BF0EFFE20B15A
:102690002868254BC16A18888847244803220660A9
:1026A0002349CBF8DC2000230B602868416B2046CF
:1026B00088470128F9D13868042009F051FD044603
:1026C00015481E490660386808688009FCD30098E0
:1026D000012802D1304607F0DFFA0BF0AEFE0820E9
:1026E00009F03EFD07460298CBF8DC6009F008FED1
:1026F0001348008807F002F80AF0FEFD57EA0400CC
:1027000018BF4FF0FF3804E06FF0040801E06FF0ED
:1027100001084046BDE8FE8F0C40094000022243FC
:102720002C200940682D0100642D0100282008603C
:102730008001044300400340242208401410094053
:10274000AC32010064300020A401001000B5ADF1EE
:10275000140D0191009002A80BF0FAFF03208DF8F0
:1027600008004FF0004002A907F0C8FD6C4908605E
:102770004FF0804002A907F0C1FD6A49086069482E
:10278000006830B1674800680021002239A30AF0D0
:102790008BFA6348006830B161480068002100226C
:1027A0003CA30AF081FA6148614905F055FC5E4995
:1027B00008605D48006810B93BA00BF0DBF84FF4EF
:1027C000803001214FF47F6208F064F859480BF023
:1027D000E1FB0BF03FFF5A485849574A0068B1FBEC
:1027E000F0F110680CF028F8534800680BF00CFB6F
:1027F0005548564905F030FC524908605148006878
:1028000010B934A00BF0B6F84E48514900680BF0EF
:1028100020FE10B137A00BF0ADF84E480068002143
:102820004FF0FF324FF0FF3303F0A8FB0390039803
:10283000400813D306200BF071FB0022002100B1E9
:10284000012101B9012238480068062109F032FA55
:102850004148008807F08AF900F084F9039880085D
:1028600001D300F07FF90398C008D6D303A802F083
:1028700081FCD2E757616974696E6720666F7220C8
:10288000534345204144432072656164696E672E5D
:102890002E2E00C057616974696E6720666F7220C2
:1028A0004144432E2E2E00C04572726F7220696E15
:1028B000697469616C697A696E6720626F617264BC
:1028C00020332E335620646F6D61696E2070696EFF
:1028D000730A00C04572726F7220696E6974696113
:1028E0006C697A696E6720627574746F6E207069A6
:1028F0006E730A004572726F722072656769737435
:102900006572696E6720627574746F6E2063616CA6
:102910006C6261636B2066756E6374696F6E00C074
:10292000201D0020241D00201C1D0020CC1E002086
:10293000803A0020F9CF0000141D002080C3C90197
:10294000CC340100181D0020C01E0020503A002089
:102950002DC100000C1D0020101D00202DE9FE4F90
:102960000D46064628687468D6F80880E8B1AF6856
:102970000FB96B68CBB194F894100020012908BFFF
:102980000120384202D16968084205D0012080F058
:102990000100C0B2012808D10BF014FFD4F8881050
:1029A00031B10BF0E7FE032028740020BDE8FE8F54
:1029B0004FF0010985F81090C4F88850002101916A
:1029C000C4F88C10C4F890100BF0D4FE94F8AC004E
:1029D00038B194F895206149D4F8A400114309F066
:1029E0003DFB6F680BF0EEFE824694F8E00070B994
:1029F00017F0704F06D12FB1042009F061FD0620B9
:102A000009F05EFD022009F05BFD84F8E09050467D
:102A10000BF0B0FED8F80010486840F002004860A3
:102A20002078002874D12868D8F81C1081426FD90A
:102A3000AE680EB904F1AE066F6837B9B8F80E008B
:102A400004F1AE07A4F8AE002868616909292CBF1B
:102A50004FF0020BCB465FEA000930D0DFF800A14F
:102A60006069092811D3DAF8000042683988D8F87B
:102A700000009047DAF80000C268D8F80000694604
:102A80009047BDF80000308010E0DAF8000042689E
:102A90003978D8F800009047DAF80000C268D8F812
:102AA0000000694690479DF800003070AB6803B1A4
:102AB0005E446B6803B15F44B9F10109D0D1D8F825
:102AC0000010486820F0020048606F680BF07AFE42
:102AD000054694F8E00078B117F0704F06D12FB199
:102AE000062009F0D5FA042009F0D2FA022009F0F4
:102AF000CFFA019884F8E00028460BF03BFE0198DD
:102B0000D4F888100874C4F888000120019022E0ED
:102B10002046414602F052FDD8F80010486940F0C6
:102B20000100486120780028EFD1616804F16C0051
:102B300005460BF0CEFA0028E7D0D4F88800017CD7
:102B4000012904BF03210174304603F09FF9019964
:102B500028460BF0BEFA0198BDE8FE8F0000068003
:102B6000C40100100EB57448007818B90BF0B4FC1D
:102B70007149087071480078B8B9714800680BF065
:102B800044FC6D4800786E4900900868002239A323
:102B900000210AF089F86B480088694900900868AC
:102BA000002238A301210AF07FF8634800786649C3
:102BB00000900868002236A300210AF075F86148E9
:102BC0000088614900900868002238A300210AF0BB
:102BD0006BF85A480078B8B15C4800885C490090AE
:102BE0000888594901900868002236A300210AF09C
:102BF0005BF858480068544900900868002236A3E2
:102C000000210AF051F833E0534890F90000B0F188
:102C1000FF3F2DD023E04C4800680021002234A360
:102C20000AF042F8484800680BF0F5FB20E04648FF
:102C300000680021002235A30AF036F818E0424867
:102C400000680021002235A30AF02EF810E03E486B
:102C500000680021002235A30AF026F808E03E486B
:102C600000780028D7D0401EE9D0401EDFD0EEE724
:102C70000EBDC0464E6F646549443A203078253019
:102C8000327800C04144433A202530346400C046C5
:102C90001B5B324A201B5B303B30484E6F64652023
:102CA00049443A2030782530327800C04E6F646550
:102CB000204144432052656164696E673A202530A3
:102CC000346400C04F414420426C6F636B3A20254E
:102CD00064206F66202564004F414420426C6F637E
:102CE0006B20526574726965733A20256400C04692
:102CF0004F41443A20636F6D706C65746564207356
:102D000075636365737366756C6C79004F41443A03
:102D100020435243206661696C6564004F41443A28
:102D20002061626F7274656400C046C04F41443ACE
:102D3000206572726F7200C0413A0020343A002060
:102D4000201D0020101D0020241D0020363A0020E8
:102D5000383A00203C3A0020403A00202DE9F04764
:102D6000044669480E4601681F461546ADF1380D08
:102D7000BEB1B5B130784FF0010808FA00F0014259
:102D80000FD0104600210BF025FD6660A5600BF00A
:102D900019FD5E4D81462878022804DB48460BF079
:102DA000E9FC0020ADE0002861D102F06DFA58493D
:102DB00008680DF1280A40F00200086050460BF048
:102DC000FDF9544E5449707852460C9005F1B40008
:102DD00008F0FAFE514905F1E800524608F0F4FE09
:102DE00050460BF0ABF930784D4A192153460B9001
:102DF00005F1380008F014FE4A4A05F154001A2182
:102E0000534608F00DFE4849002205F19000134694
:102E100008F01EF9454A05F124000421002309F0B9
:102E2000ABFFB078012802D10E2004F0E7FA05F1DB
:102E300078000BF055F805F170000BF051F8002008
:102E400085F820004FF4FA72C5F82421287507216F
:102E500085F8B811E861364B1870C5F8282185F857
:102E600021000526A86033492E612878A96105EB69
:102E70008001401CC1F81C41C0B2287048460BF0CC
:102E800079FC1FB903AF38460BF052F83868206060
:102E9000B86941462062388A617460827868002887
:102EA0000CBF40F6C4100021E06021742248A061EC
:102EB000E0616061F86800B1A061786900B1E0612B
:102EC000B86800B16061A02204F12800002105F07B
:102ED000E3FF04F14000002109F0DEFD68460BF03D
:102EE0002EFC1649029404F1780000226B4608F08B
:102EF000AFF8134904F19C0000226B4608F0A8F8D3
:102F000020460EB0BDE8F087D4210840200D0020F7
:102F100000200940F433010079DB0000596C000007
:102F2000B5A30000158D000039D30000CDAB000023
:102F30002F1E002011630000E7830000F1D600007F
:102F40005DE7000000B5ADF12C0D079005208DF870
:102F500026006048007810B15F48007808B1012071
:102F6000B6E05E480068002103F042FF08B909207E
:102F7000AEE00798007B802801DD0220A8E05848D9
:102F800007990278574804F0CDFF5548079A0799EA
:102F9000544B0078127B0D31C01804F0C3FF504928
:102FA00007980A78007B5049801808704D484F49AF
:102FB00008604F48007804280BD149494A480978ED
:102FC000007840180A300521C00090FBF1F008900D
:102FD0000AE0434944480978007840180A30322111
:102FE000C00090FBF1F0089007988068C8B1414894
:102FF0004049007820F00F0040F0020008703D4981
:10300000087840F08000087007983B4980680860A5
:103010003948089900684FF47A6202FB0100049075
:1030200014E03449087820F00F000870314908781E
:1030300040F08000087030490020086006F01EFF54
:1030400008994FF47A6202FB010004902B48007843
:1030500088B101208DF814004FF0E24102208DE884
:10306000030027482749006804AA002300F0E4FA77
:10307000ADF824000DE002204FF0E2418DE803009E
:103080001F48204900680122002304F063FDADF8C9
:1030900024001B48BDF92410006802224FF0E243CF
:1030A00002F07CFE02AA82E8030002A890E80C006D
:1030B000022100201140184000D1002902D0002038
:1030C0008DF826000548006807F0B8F89DF826003E
:1030D0000BB000BD253A0020263A0020E01D00205C
:1030E000243A0020841900200F1E0020141E002006
:1030F000901E00200C1E0020081E0020283A0020F0
:10310000DC1D0020001E002000B5ADF1240D06914D
:10311000059006208DF820005748007810B15748D8
:10312000007808B10120A5E055480068002103F0AF
:103130005FFE20B15348B0F90000002801D40920F7
:1031400098E00598504908605048079007988921F1
:10315000C1800798002101714D49079808604D49C9
:10316000002008604A484C4908604D484B490860B7
:10317000069880B14B484B49007820F00F0040F092
:10318000020008704749087840F0800008700698EF
:10319000454908600CE04349087820F00F000870AA
:1031A0004049087840F0800008703F4900200860DE
:1031B0003E480068A0B13E483D49007820F00F002D
:1031C00040F0020008703A49087840F0800008702A
:1031D00006F054FE3549374A0968401810600FE080
:1031E00033483349007820F00F0040F001000870A8
:1031F0002F49087840F0800008702E4900200860B0
:10320000274800210C2205F047FE2B480078A0B18A
:1032100001208DF80C00274800680290294B4FF0E0
:10322000E24102208DE8030024482549006802AAF3
:1032300000F002FA134908800DE002204FF0E2414D
:103240008DE803001F4B1D481D490068012204F052
:1032500081FC0C4908800B48B0F90000002803D419
:1032600000208DF8200003E00548006806F0E6FF26
:103270009DF8200009B000BD253A0020263A002024
:10328000E01D0020303A0020D41D002054180020FA
:10329000241F0020281F0020D01B0020D41B00204A
:1032A000F01E0020B41B0020B01B00202C3A002090
:1032B000C71B0020C81B0020283A0020DC1D00206E
:1032C000A81B00207D3900002DE9F04FADF1240D41
:1032D000079001F0D9FF6048007809F0A9F85F4D28
:1032E0000024012806D90C3804D0401E0ED0401E00
:1032F00009D006E00AF08CFB022804BF01210C1C57
:1033000006D0696805E005211F2401E00321072498
:103310006960534A1068C0F38150012806D152F801
:103320000C0C0127020E07FA02F004430AF02EFFEC
:10333000524AFF234018401E471C28607F1E02F897
:10334000013BFBD1079A1268002702F0FF03FE2B16
:1033500020D0DDF81CC096463B4601260EF0FF0249
:10336000FF2A10D0904205D3914203D806FA02F208
:10337000144201D002206CE017430EF0FF02DFF888
:10338000FCE00EF802305CF804EF5B1C0EF0FF026C
:10339000FE2AE5D1092004F031F807980121A86040
:1033A00005F1280009F078FB05F19806A8464FF0D2
:1033B000010A4FF0040B0025A9460AFA05F0044261
:1033C00016D1074204BF05F0FF0141F4C04104D00B
:1033D0002A480799405D51F82010224803F078F8F8
:1033E000E8B24FF0FF310AF067F9C6F8009001E04B
:1033F000C6F800B0D8F800006D1C361D8542DCD937
:1034000004A80AF09BFE184C184A2078102104AB3F
:10341000059008F10C0008F003FB68460AF0CEFEA8
:10342000CDF80C906A4660681149029008F164007A
:1034300008F0CAFB0F4951F80D0C20F4F85040F485
:10344000005041F80D0C0C4FC1F8FFAF4846C7F8CB
:1034500000A009B0BDE8F08F4C1F0020502F0020C5
:10346000B43F0050007FC76734340100D5D6000058
:10347000A1B700000D30094008000940942F00203A
:103480002DE9FC4F83F0004301E02DE9FC4F1F03C1
:10349000FF0847EAD2574FEA42284FEA43095FEA5A
:1034A000595906D147EA080A1CBF00210020BDE88F
:1034B000FC8F57F000575FF4E06E1EF1FF0EF145F0
:1034C00005D14FF00000190D0905BDE8FC8F002B58
:1034D00005D55FF0000AD8F100086AEB07070C0376
:1034E000E40844EAD0544FEA40254FEA4106760DFD
:1034F00008D144EA050A19BF00210020191C101C3C
:10350000BDE8FC8F44F00054764504D10020090D3D
:103510000905BDE8FC8F002904D55FF0000A6D4263
:103520006AEB0404B6EB090E08D5A2463C465746A2
:10353000AA464546D046CEF1000E4E46BEF1360FA5
:103540005CBF4FF0000B23E0BEF1000F04BF4FF053
:10355000000B1AE0CEF1390ABAF120092EBF08FAA1
:1035600009FB07FA0AFB4BEA080BDEF1200A07FA0F
:103570000AFA38BFBA4647FA0EF72DBF28FA0EF8F6
:10358000AEF1200E4AFA0EF8D04415EB08057C4146
:1035900054EA050A02BF00210020BDE8FC8F002C80
:1035A00058BF4FF0000A06D55FF0010A5FF0000E29
:1035B0006D426EEB0404A6F101066D006441FAD57C
:1035C00015F4806E11D005F480794BEA090B15F5DE
:1035D000806554F1000428BF761C0BD205F40079F5
:1035E0005BEA090B08BF25F4006525F4E0656D0072
:1035F00044EB0404B61CDEBF00210020BDE8FC8FB4
:103600005FF4E06E1EF1FF0E76450AD34FF0000026
:1036100013F00043FF21C900C91D09051943BDE886
:10362000FC8F270547EA1530210B41EA065141EA94
:10363000CA71BDE8FC8F70472DE9FE4F984692464F
:103640000D4683460BF0BEF80290654806680CAF45
:103650005E450CBFD0F80490B146634C6FF001009A
:10366000B9F1000F019006D009F19C000AF05EFD4F
:10367000002840F0A48009F077FC061C00F0AA8026
:103680000BF178000BF09AF8F560B4F98C009AF819
:103690000430401C86F836306FF31F30A4F88C00DD
:1036A000C6F80880B4F88C00B0864E48C6F810B052
:1036B00097E80C00202100271940104006F118035C
:1036C00083E80300B84686F8377006F1200282E8E6
:1036D00080013763F762DAF8003003B13363287B87
:1036E00000F00F00022804BFA868F062F0680088AC
:1036F0006FF30900B0F5205F05D196F8370040F070
:10370000100086F83700D4F84401834507D194F8B7
:103710005001410824BF00F0FE0084F850013846F3
:10372000CDF80080484528D05846494632466B4679
:1037300003F05AF98046B8F1010F04D104F170008A
:10374000314609F076FDB8F1020F0BD100990A68F5
:1037500004F170001AB9314609F05AFD02E0314611
:1037600009F045FDB8F1040F04D196F83610009821
:103770000AF0F6F938F0040004D104F17000314683
:1037800009F046FD18F1020F10D018F1030F0DD00B
:10379000B6F9340096F83750019045F0800086F86D
:1037A00037008BF8C0700AF0F3F913E0B4F98C001D
:1037B00000F6FF706FF31F30A4F88C0002E06FF08A
:1037C0000200019094F8500140F0040084F8500188
:1037D000C4F844B102980AF0CDFF0198BDE8FE8F0D
:1037E0003C0E0020FDEFFF9F200D00202DE9F84347
:1037F000614C5A4D5A4EDFF870815E4F94F8E410D8
:103800000846401E0B2864D8DFE800F07B2C4306F6
:103810002343062343067664042907D001220A299C
:1038200045F8212C14BF0220032004E0202045F895
:10383000210C0120024684F8E200002045F8390CF2
:103840000827C5F8FF7FC5F8F37F45F8392CBDE898
:10385000F883052914BF09200620002784F8E40016
:10386000376075E094F8E170383D0120002FC5F80D
:103870001B0004BF0620002102D00021F1600320BC
:1038800084F8E400032045F8010C316030688008BA
:103890005ED294F8E4103348012703290ED0006863
:1038A000456800216022052300914046A84794F80E
:1038B000E400062814BF0A200720CFE70068456807
:1038C000002160220523022000904046A8470420E2
:1038D000C4E7FEE72548264F0026012506600E2096
:1038E0003D6003F073FC022008F0D2FB84F8E45042
:1038F00084F8E360BDE8F883002038600C25786028
:1039000024E04FF08059D9F8A001016820208847B1
:103910002C3D0F2045F8010C41F61D56C5F80360FB
:10392000D9F8A401466800214FF4C072072302258C
:1039300040460095B047D9F8A401C66800214FF46D
:10394000C07207234046B0470120386084F8E45035
:1039500004F178000AF030FFBDE8F88339400C40EC
:1039600038600C40A401001000A00C402C500C400A
:1039700004800C4034600C406430002000B5ADF190
:10398000140D8DE80C00ADF81010029006208DF893
:1039900012004B4803909DE80C00022100201840C3
:1039A00001EA020100D1002968D04648006806F00B
:1039B00045FC45494FF0FF30088044480088B0F589
:1039C000505F4DD103980079032803D006208DF86D
:1039D000120069E03E480088012808D03D48007880
:1039E000C011400828D33C480078012824D13C4924
:1039F00003980A78007A3949801A08703848039980
:103A000002783848093104F08DFA3548334A039971
:103A10000078127809183448093104F083FA3448E0
:103A2000324990F900000870334832490068086054
:103A300000208DF8120037E030480078012803D1CB
:103A400008208DF812002FE02D480078012803D1BE
:103A50000A208DF8120027E006208DF8120023E0DE
:103A60001A48008843F20141814203D107208DF8B2
:103A7000120019E006208DF8120015E09DE80C00F8
:103A80004FF0E2400021184001EA020100D1002974
:103A90000AD00C48006806F0D1FB0B494FF0FF300C
:103AA00008800A208DF812001648006830B11548C9
:103AB0009DF81210006802460A48904705B000BD04
:103AC00054180020E01D0020303A0020AA1B0020DE
:103AD000F01E0020B61B0020F41E0020001900205C
:103AE000243A0020EC18002001190020F4180020CE
:103AF000F71E0020F8180020F81E0020F61E0020F7
:103B0000F51E0020D41D00202DE9FF410646880F38
:103B1000C0F0A780002007F009F853480AF03EFBE8
:103B2000012009F0B9FB514A40F60A01118000203A
:103B30005080137B60F3030313735060537B4FF08B
:103B4000010868F303035373B56868802B88A3F6F4
:103B50000207A7B141F21E03FF1A10D06B7E60F37B
:103B600082036B76777C37B92B8B23F47C7343F419
:103B700034732B8313E02B8B60F30913F9E76B7C11
:103B800060F382036B74777C2FB92B8A23F47C73E8
:103B900043F4347302E02B8A60F309132B828E46C0
:103BA00070742F46AEF1070101F1010C00E02746C9
:103BB0007C6834B123889E4503D0994218BF9C4548
:103BC000F5D17A602C4C7B7B241F60F303037B735D
:103BD000236F33B1DB681B8899421AD06146994242
:103BE00017D0338DB3B1F06206F12801488096F802
:103BF000343060F3030386F8343096F8353068F3D8
:103C0000030386F835305160517B60F30301517333
:103C100000E0A0602846694602F07CFE68460AF093
:103C20009DFA0AF08FF91248A06194F8210058B962
:103C3000404608F0ADFE01280CD0787B68F3030005
:103C400078730C4EA66105E007F082FF0028FBD0D8
:103C50000AF0C2FD28460AF0A1FA2946404609F0BA
:103C600095F90090BDE8FF8101010E04301E00208F
:103C7000ED1400007DAB0000240D00200FB480B5D2
:103C800002AF444900200870444843490078087056
:103C9000444843490078087044484349008800F488
:103CA0007F400012087041484149008800F0FF0041
:103CB000087041483F49008800F47F4000120870B6
:103CC0003D483E49008800F0FF0008703D483C49EF
:103CD000006800F07F40000E08703A483A490068DA
:103CE00000F47F00000C087036483849006800F482
:103CF0007F40000A087033483549006800F0FF0033
:103D0000087035483349007808703449102008702D
:103D10003349387C0870334978690860324900209B
:103D2000087078694FF47A614143032002F0C6FEBF
:103D30001848FFF707F910B107A009F01BFE2B4840
:103D40000021FFF7E1F910B10AA009F013FEBDE868
:103D5000804004B07047C046456173794C696E6B12
:103D60005F7472616E736D6974206661696C6564FD
:103D700000C046C0456173794C696E6B5F726563C4
:103D8000656976654173796E63206661696C656407
:103D900000C046C0201700202D170020A01E0020C4
:103DA0002E170020A11E00202F170020A21E002089
:103DB0003017002031170020A41E002032170020E9
:103DC00033170020A81E00203417002035170020CC
:103DD0003617002037170020AC1E00202C170020BB
:103DE000B1170020B4170020B01700206175000043
:103DF0002DE9F84F804692460868DAF800500678B8
:103E000000271C46BB46421C242E0A6026D110F80F
:103E1000016F521C532E0A6020D1ED1C25F00305C2
:103E20002D1D55F8040CE061CAF80050208B00905D
:103E3000A168E269D8F800005346FDF797FE834673
:103E4000D8F8000010B15844C8F80000DAF8005063
:103E50002068E7600127A0EB0B002060662E05D0EC
:103E6000002F64D1E16901200E705FE0208B40B922
:103E7000ED1D25F007050835A5F1080090E80003C1
:103E800009E0ED1C25F003052D1D55F8040C07F085
:103E9000B9FF894680462AA20CCA4946404604F02A
:103EA000EDFD28BF002705D2206989F000490127D0
:103EB000401E206124A20CCA4946404604F021FE5F
:103EC00031D3404607F054F9064608F0EFFC0B46A4
:103ED000024649464046FFF7D3FA1DA20CCA01F03C
:103EE00071FD07F00FFB0146606904220A2305F00B
:103EF000F9FA401EE0612E21017063692269E069D0
:103F000031461B1AE360D21A0A2305F0EBFA002FA0
:103F100008BFE06104D0401EE0612D210170E0691E
:103F20006169081A02E004A0E0610720E060CAF8B5
:103F300000505846BDE8F88F286572726F722900EC
:103F400000000000000000000000C0FFFFFFDF4194
:103F5000000000000088C3402DE9FF410446666868
:103F6000A7680D460AF02EFC3178012903D10AF02A
:103F700001FC00208CE0012131700AF0FBFB287865
:103F800070706878B07068687060A868B060E86841
:103F9000F06028693061287D3075687D7075A87D76
:103FA000B075A869B061287F3077687F7077A87F87
:103FB000B0774FF00008C6F82080C6F8308045463C
:103FC00075627563B562B56386F82C5086F82D501E
:103FD000786803F013FA204603F060FE204604F0F0
:103FE000D3F870B92C480068C16838688847786889
:103FF00003F0ECF80AF0E6FB35700AF0BBFB2C4648
:1040000045E068460AF09AF80094387B234A01900C
:10401000B9686B4606F17C0007F002FD68460AF0BD
:10402000CDF800941E4938696A46029006F198005E
:1040300007F0CAFDB07830B906F1CC00294608F087
:104040002BFD18483061707830B906F1E800294638
:1040500008F022FD1448F06068460AF070FB0195F4
:104060008DF800501149029406F582700A226B46C1
:1040700006F0EEFFB969FA6906F13C000AF020F893
:104080000B4A06F168000421234608F075FE20461D
:104090000090BDE8FF81C046D00100105D430000E4
:1040A0002182000037E70000E7E6000091B200003F
:1040B0000DE30000B0B5456884684F48297BADF139
:1040C000180D012916D0217E627E4C4B2F7E0143B4
:1040D000009143EA02010191494937F0010718BFF5
:1040E000081CA27E1043029095F895000322FF2839
:1040F00011D00DE0677E217E3843A37E019041F010
:104100000041009143F000403E49029095F895002F
:10411000014304220391FE204DF82200694605F177
:10412000980003F099FFC5F8A400002808BF0020FC
:104130005FD0287B344951F8200001282BD020681B
:10414000B0F1804F14BF22220A22217ED5F8A400AC
:1041500008F060FC2068B0F1804F14BF21220922D2
:10416000617ED5F8A40008F055FC2068B0F1804FBE
:1041700014BF24220C22A17ED5F8A40008F04AFC2A
:1041800095F89510FF2933D02068B0F1804F14BF07
:1041900023220B2228E02068B0F1804F14BF212297
:1041A0000922217ED5F8A40008F034FC2068B0F183
:1041B000804F14BF22220A22617ED5F8A40008F0A5
:1041C00029FC2068B0F1804F14BF24220C22A17E6C
:1041D000D5F8A40008F01EFC2068B0F1804F14BF91
:1041E00023220B2295F89510D5F8A40008F012FCB4
:1041F000012006B0B0BDC046000480A00040008091
:104200000004C0A000200080902E0100ADF1300D10
:10421000504800905048019039200A90009850F87A
:10422000041B00900291009850F8041B0391009029
:10423000009850F8041B04910090009850F8041B5B
:1042400005910090009850F8041B0691009000988A
:1042500050F8041B07910090009850F8041B089137
:104260000090009850F8041B099100900198011DDE
:104270000191029901600198011D0191039901606A
:104280000198011D0191049901600198011D01919E
:10429000059901600198011D01910699016001983D
:1042A000011D0191079901600198011D0191089973
:1042B00001600198011D0191099901600A98401E51
:1042C0000A90ABD1009850F8041B0090029100981E
:1042D00050F8041B03910090009850F8041B0491BF
:1042E0000090009850F8041B05910090009850F839
:1042F000041B06910090009850F8041B0791009051
:10430000009850F8041B089100900198011D01913C
:10431000029901600198011D0191039901600198C2
:10432000011D0191049901600198011D01910599F8
:1043300001600198011D0191069901600198011D1C
:104340000191079901600198011D0191089901608F
:104350000CB0704778E80000008000212DE9F84F8C
:104360008046D8F808603068D8F80450076CDFF849
:1043700030B14764AB6B6A6C286C17F4F06F194668
:10438000A0EB020934D1F8091ED2780974D3B1B177
:1043900096F821205846801D845C601E814294BF9F
:1043A0001C1C641E4046214607F010FDA86B001B34
:1043B000A86361D105F1980001210AF019FA40467D
:1043C000494608F00DF957E00029F8D0404607F0BB
:1043D000FDFC95F82D10A86311B900284CD101E01F
:1043E0000020A86305F1980001210AF001FA43E0DA
:1043F000F80A20D24FF0000A544602E0AB6B5B1E75
:10440000AB6393B14046012107F0E0FC306844689B
:1044100014F00F04C0F804A0F0D0286B401E2863ED
:10442000686B401E6863A86BE8B905F1980001212C
:104430000AF0DEF913E0306844680022202904F015
:104440000F044260CCBF4FF0200A9A4640465146C6
:1044500007F0BCFCCAF120008145C8BF814649462F
:10446000404608F0BDF8EC77404605F0E3F9726A83
:1044700012B1404621469047B8090FD3A96A69B1E5
:104480000F46404607F02EFDA86238B996F8202066
:104490005946895C4046C91906F0C0FBBDE8F88F53
:1044A000DC2D01004E492DE9F843886F8D6F01F135
:1044B0007809002800F091800646F06840F6030273
:1044C00020278846531C02E040687F1EFFB260B17F
:1044D0005FB101888A4218BF8B42F5D131691CC88F
:1044E00028311CC189C881E88900AE68AA6A002702
:1044F000AF6236B395F8370000F00700401E0BD0CE
:10450000401E06D0801E18BF002308D14FF08053F4
:1045100004E04FF0804301E04FF000533A4695F835
:104520003700000908D395F8370010F0070F03D0C3
:104530004FF080703A430343AC682869B5F93410F2
:10454000A0470AF03FF90446B8F98E00401C6FF30B
:104550001F30A8F88E00484685F8377008F036FE00
:1045600020460AF007F9B8F98C00B8F98E10884295
:1045700033D1286990F8C00000280CBF052007201F
:1045800004F044FB08F58E7128690E68864208BF66
:104590004E6890F8C040002C0CBF04683C1C80F8AA
:1045A000C0704EB196F8C03023B93068A04228BF21
:1045B000041C01E086F8C07064B1B4F1FF3F0CD078
:1045C0000849286909687830B4FBF1F109F0DAFB91
:1045D000BDE8F883082007F075FDBDE8F883C04604
:1045E000200D0020441F002000B5ADF11C0D00205F
:1045F000ADF8080009F01AF80090009880090190C1
:10460000444801990088B0FBF1F08DF80D00414855
:10461000019A9DF80D10008802FB11008001ADF891
:104620000A003D48008838B13B49BDF80A000988B6
:1046300040184038ADF80A0038499DF80D00098847
:1046400040188DF80D00354800788DF80C0049E0D1
:1046500032489DF80C100088884201D1042000E007
:104660000020ADF8100027E09DF80C00BDF81010F8
:1046700005AA042308F054FC00208DF818009DF8CA
:104680001800042813DA9DF818000DEB0001BDF89E
:104690000800097D04F024F9ADF808009DF8180021
:1046A000401C8DF818009DF818000428EBDBBDF8BD
:1046B0001000001DADF810000098BDF810108842E1
:1046C0000BD99DF80D009DF80C108842CCDCBDF88C
:1046D0000A00BDF810108842C6DC9DF80C00401C92
:1046E0008DF80C009DF80D009DF80C108842AFDA93
:1046F000BDF80800002104F0F3F8ADF80800BDF89B
:104700000800002104F0ECF8ADF80800BDF808003E
:1047100007B000BDF83A0020FA3A0020DC1E002065
:104720002DE9F0414A4DD5F88070D5F88440002F2E
:1047300000F08280B86940F00A0009F081F90109AF
:1047400024D2810800D30CB307F1180292E81800B4
:10475000002103400C4008BF002B71D0BA69BE6A2B
:1047600007F1200410403043B86294E80C00C5F80B
:10477000887007F120061943104386E8030005F10D
:10478000B4004FF480410AF033F859E0B969BE6AC9
:1047900041F00A0108403043B86207F1200696E86C
:1047A0000C000021002619431043C5F8806007F172
:1047B000200383E80300254BBA6919689143196007
:1047C000FA6953F8081C05F178008046914343F8D4
:1047D000081C394608F01CFD05F1B40002210AF05E
:1047E00007F86CB320693969884229D194F83710E9
:1047F00097F83700084310F0070019D041080AD293
:10480000810839BF94F83710084394F8370040F016
:104810000200024603E094F8370040F0010284F8F9
:1048200037204046214608F0F3FCC5F8846007E0D5
:10483000022002F087FD03E04FF0FF3009F000F99D
:1048400003F0DAF902F03AFBBDE8F08114100440FD
:10485000200D0020ADF1300D4648009046480190F3
:1048600035200A90009850F8041B0090029100989F
:1048700050F8041B03910090009850F8041B049119
:104880000090009850F8041B05910090009850F893
:10489000041B06910090009850F8041B07910090AB
:1048A000009850F8041B08910090009850F8041BE1
:1048B000099100900198011D0191029901600198F0
:1048C000011D0191039901600198011D0191049955
:1048D00001600198011D0191059901600198011D78
:1048E0000191069901600198011D019107990160EC
:1048F0000198011D0191089901600198011D019124
:10490000099901600A98401E0A90ABD1009850F8AE
:10491000041B00900291009850F8041B0391009032
:10492000009850F8041B04910090009850F8041B64
:1049300005910090009850F8041B06910090019892
:10494000011D0191029901600198011D01910399D6
:1049500001600198011D0191049901600198011DF8
:104960000191059901600198011D0191069901606D
:104970000CB07047B4EF000000C00021ADF1300D65
:10498000464800904648019035200A90009850F81B
:10499000041B00900291009850F8041B03910090B2
:1049A000009850F8041B04910090009850F8041BE4
:1049B00005910090009850F8041B06910090009813
:1049C00050F8041B07910090009850F8041B0891C0
:1049D0000090009850F8041B099100900198011D67
:1049E0000191029901600198011D019103990160F3
:1049F0000198011D0191049901600198011D019127
:104A0000059901600198011D0191069901600198C5
:104A1000011D0191079901600198011D01910899FB
:104A200001600198011D0191099901600A98401ED9
:104A30000A90ABD1009850F8041B009002910098A6
:104A400050F8041B03910090009850F8041B049147
:104A50000090009850F8041B05910090009850F8C1
:104A6000041B069100900198011D019102990160BB
:104A70000198011D0191039901600198011D0191A7
:104A8000049901600198011D019105990160019847
:104A9000011D0191069901600CB0704768F6000095
:104AA00000C00021ADF1300D46480090464801900D
:104AB00035200A90009850F8041B0090029100984D
:104AC00050F8041B03910090009850F8041B0491C7
:104AD0000090009850F8041B05910090009850F841
:104AE000041B06910090009850F8041B0791009059
:104AF000009850F8041B08910090009850F8041B8F
:104B0000099100900198011D01910299016001989D
:104B1000011D0191039901600198011D0191049902
:104B200001600198011D0191059901600198011D25
:104B30000191069901600198011D01910799016099
:104B40000198011D0191089901600198011D0191D1
:104B5000099901600A98401E0A90ABD1009850F85C
:104B6000041B00900291009850F8041B03910090E0
:104B7000009850F8041B04910090009850F8041B12
:104B800005910090009850F8041B06910090019840
:104B9000011D0191029901600198011D0191039984
:104BA00001600198011D0191049901600198011DA6
:104BB0000191059901600198011D0191069901601B
:104BC0000CB070471CFD000000C00021ADF1300D9D
:104BD000464800904648019035200A90009850F8C9
:104BE000041B00900291009850F8041B0391009060
:104BF000009850F8041B04910090009850F8041B92
:104C000005910090009850F8041B069100900098C0
:104C100050F8041B07910090009850F8041B08916D
:104C20000090009850F8041B099100900198011D14
:104C30000191029901600198011D019103990160A0
:104C40000198011D0191049901600198011D0191D4
:104C5000059901600198011D019106990160019873
:104C6000011D0191079901600198011D01910899A9
:104C700001600198011D0191099901600A98401E87
:104C80000A90ABD1009850F8041B00900291009854
:104C900050F8041B03910090009850F8041B0491F5
:104CA0000090009850F8041B05910090009850F86F
:104CB000041B069100900198011D01910299016069
:104CC0000198011D0191039901600198011D019155
:104CD000049901600198011D0191059901600198F5
:104CE000011D0191069901600CB07047D0030100CD
:104CF00000C000212DE9F041404C444D8046C8F3EE
:104D00008140401E02D0401E2AD025E02846203097
:104D10000168880C20D24FF4804020603848D0F8D9
:104D200002204B0AC1F3033703F0800322F08F0205
:104D3000134347EA0302C0F80220D0F801300E12F4
:104D400066F30303C0F80130026801F0E70722F0C0
:104D5000E70247EA020102E04FF00041204601600D
:104D60002C4E301D0068C0F3C0070FB94020A06270
:104D70004FF40070206409F0F9F940F0300084F835
:104D8000C800C8F3815040B3401E03D0401E1FD05E
:104D900002211EE0012007F0FBFD074604203946F2
:104DA00004F0ACFF042007F0F3FD8742FAD1361F70
:104DB000366826F07F4007F053FB1248006803680E
:104DC00007214FF06022300E98474FF4806020603A
:104DD0000321042004F092FF06E00420012104F0E6
:104DE0008DFF094807F03CFB2846094F006800F09A
:104DF0003F0084F8CB0F3868BDE8F08140A00C403C
:104E00000A600840B4010010BD3786006C130050E2
:104E10002C200940AC3F00502DE9FF410546080B0E
:104E20007FD3414C60680421026A2175D20802D305
:104E3000C369002298473D4904F13800002209F077
:104E4000C7FC3B486768A0617968886808B9C8688A
:104E500010B1384809F0A2F9012005F067FE364884
:104E600009F09CF9D5F808800020A8F80200A9688C
:104E70000A88A2F6020747B141F21E02BF1A04D007
:104E80000A8B60F309120A8303E00A8A60F30912AD
:104E90000A8240F60A064246F11F01F1010C00E0C9
:104EA0003A46576837B13B889E4203D0994218BFB3
:104EB0009C45F5D15060537B012666F30303537381
:104EC000236FDB681B8899421AD06146994217D03C
:104ED0002F8DB7B1E86205F12801488095F834308C
:104EE00060F3030385F8343095F8353066F3030337
:104EF00085F835305160517B60F30301517300E058
:104F0000E0604046694601F005FD684609F026F973
:104F100009F018F8404609F041F94146304608F0DA
:104F200035F80090BDE8FF81200D002059D3000026
:104F3000ED1400005100070601010E042DE9F043B5
:104F400004466568A7680E46ADF1140D09F03AFCF9
:104F500095F8E11019B109F00DFC00206EE04FF05A
:104F6000010985F8E19009F005FC4FF00008C5F84B
:104F700088803069286170696861307E2876307B6E
:104F8000287330782870706885F8AC806860706924
:104F90004146092828BF494685F89410387B02F01D
:104FA0002DFA204605F042FBF87E85F89500204654
:104FB000FFF780F830B9387B02F008F9444685F8ED
:104FC000E1803AE0684609F0B9F8009478791D4A22
:104FD000019039796B4605F11C0006F021FD684609
:104FE00009F0ECF800941849B8686A46029005F197
:104FF000380006F0E9FD05F039FAC5F8A800287B6D
:10500000012808D1D5F8A400104909F022FAD5F8F2
:10501000A40000B184600E4A05F1CC0004212346AF
:1050200007F0AAFE287830B905F16C00414607F078
:1050300033FD084800E0B068A860204605B0BDE830
:10504000F083C046E57D000025860000F5B3000032
:1050500009E50000DFE600002DE9FC4705466E6823
:10506000D5F80880B76B002F18BF4FF0FF307DD107
:1050700031630024F477171C74631BD006F13C09DC
:1050800009F0A0FB82466946484606F0E8FC002885
:105090001ED4504609F06EFB9DF80000316B08707D
:1050A000306B736B7F1E00F10100306303F1010070
:1050B0007063E5D17078726B316B0128A1EB02014E
:1050C000316303D1F36828469847726B14464CE06D
:1050D000B763504609F04EFB09F074FB244D0746B8
:1050E000287820B9022007F0EBF901202870384613
:1050F00009F040FBD8F80010086B40F4007008631A
:10510000D8F80010886B40F4FA608863707808BBA8
:10511000716806F1E807384608F0DBFFB8B1B46300
:105120003846214608F0D5FF88B109F04BFB074609
:10513000287818B1022006F0ABFF2C70384609F031
:1051400019FB1027716B306BF777401A3063706B67
:10515000BDE8FC8796F82D0038B1706B28B1B463B8
:1051600006F19800012109F043FB2046BDE8FC87C9
:105170002D1E00200EB500903A490098096800687D
:1051800001426DD03848007820B108F00DFF364953
:10519000002008703548007830B33648344900683C
:1051A0000988884220D1344A1068411C03281160C4
:1051B00012D92E4900200870002007F099F900202C
:1051C00007F0AEF909F087FA012005F087FC2949BC
:1051D0004FF0FF30086003E026490868401E086071
:1051E00026490868401C086020480078002837D00D
:1051F00023481F4900880988884219DD1C481D4939
:10520000008808601A4802881E480123002102F025
:10521000FDFB17481A49194A00880988126803F0EB
:10522000BBF9502007F07CF9A02007F061F917E0E6
:1052300006F076FA8DF804009DF8040005F04EFCA7
:105240000A49002008709DF8040030B90649012081
:105250000870A02007F04CF902E0002007F048F9A0
:105260000EBDC0460C1F0020AC3900209D39002027
:105270009A390020A8390020A0390020A439002044
:10528000983900209C3900202DE9FF47424C94F8C2
:10529000E70000286ED10127384E84F8E770F07CD3
:1052A00084F8E6007568C4F81051684609F047FABA
:1052B000002504F10C0001956B468DF80050304933
:1052C00002952A4605F0C4FE2E4904F130006B46D3
:1052D0002A4605F0BDFE2C4904F154006B46814678
:1052E0002A4605F0B5FEB16838468847DFF8A48045
:1052F0002648327D08F104030078254E1868C0F373
:10530000815A22B1BAF1030F04D184F8E170BAF1E5
:10531000030F15D0BAF1020F12D0BAF1010F0CD061
:10532000022007F0CDF8042007F032FB012804D05A
:1053300030683221B1FBF0F10DE006F063FC12E0C1
:10534000022007F0BDF8BAF1030F0CBF4FF47A71D9
:1053500042F210713068B1FBF0F1484609F02AFAC8
:10536000484609F029FA40460068C00802D228469B
:1053700007F0A6F800200090BDE8FF879C320100EE
:1053800043920000417D00006D9900004C1F0020F9
:10539000441F0020B03F005064300020ADF1300DBC
:1053A00041480090414801901F200A90009850F811
:1053B000041B00900291009850F8041B0391009088
:1053C000009850F8041B04910090009850F8041BBA
:1053D00005910090009850F8041B069100900098E9
:1053E00050F8041B07910090009850F8041B089196
:1053F0000090009850F8041B099100900198011D3D
:105400000191029901600198011D019103990160C8
:105410000198011D0191049901600198011D0191FC
:10542000059901600198011D01910699016001989B
:10543000011D0191079901600198011D01910899D1
:1054400001600198011D0191099901600A98401EAF
:105450000A90ABD1009850F8041B0090029100987C
:1054600050F8041B03910090009850F8041B04911D
:105470000090009850F8041B059100900198011DC0
:105480000191029901600198011D01910399016048
:105490000198011D0191049901600198011D01917C
:1054A000059901600CB070472C1A010000800021A2
:1054B00010B5ADF1180D009039480078082801D1D9
:1054C000002000E004208DF8100008F0AFF8354906
:1054D0000860009802F074FD01A802F0E9FA9DF856
:1054E00010109DF81000009A009B891CC01C515C94
:1054F000185C2D4A00F0FF0001F0FF0101EB0021D4
:1055000088B2C11000EB1170001110809DF81010CE
:105510009DF81000009C009B234A891CC01C595C0C
:10552000205C1388214A00F0FF0001F0FF0101EB2D
:10553000002188B28000A0EB831010801B480088F7
:1055400018B119490888401C0880194900200870C2
:10555000154A00989DF810101288401801A902F011
:1055600059F9B0B19DF810100098401806F0F2FCFF
:105570001049086008F05AF80E490A680E49B2FB53
:10558000F0F0088007F0BAFC30B907490020088025
:1055900002E00549002008800348008806B010BDDD
:1055A000FD3A0020E01E0020F83A0020FA3A0020E0
:1055B000FC3A0020D81E0020DC1E00202DE9F84F08
:1055C000D0F88890D0F88CB0D9F80020A2EB0B026C
:1055D000B2F5806F88BF4FF48062C0F89020D0F899
:1055E000908090F894C00C681FFA88F2B4F1804F54
:1055F00002FA0CF21FFA82FA14BF314B314B2D4ADA
:10560000D9F808703FB94FEA8C050095AD18AE691E
:1056100000F1AE050AE04FEA8C050095AD182E6941
:105620000CF101050BFB057555446D1E9E609646F9
:105630005D604FEA081643F6F07204F10805103E6B
:105640001D6032409E68B4F1804F42EA06069E60BB
:105650000CBF194E194ED9F804706FB9CC89009B54
:10566000A0F8AE4073449B69B36000F1AE073760A9
:105670000C6804F108050AE0009B73449B68B36062
:105680000CF101030BFB037353445B1E3360756025
:10569000B3681A43B260D0F8A8000A694068496943
:1056A000006811438162606A40F003006062BDE8F7
:1056B000F88FC046902E0100400400201005002005
:1056C00000050020300400202DE9F0413D4C054646
:1056D0002078002872D0B4F98E00B4F98C1088427A
:1056E00015D0284606F008FD021C08D1D4F8801019
:1056F000284608F05BFD08B1D4F880203AB1B2F931
:10570000341028464FF0E043002200F047FB09F038
:1057100059F8804604F58E700168A94219BF002629
:105720004660002606602078401EC0B2207088BB0C
:105730006560207D02280ED1082006F0C3FC40469B
:1057400009F018F805F140004FF0FF3108F0C1FCF6
:1057500009F038F8804604F1B40009F043F804F188
:10576000380009F02DF804F1E80009F03BF804F1E5
:10577000540009F025F804F1900009F015F804F13F
:10578000240007F0C9FD0E480078012802D10E2040
:1057900001F01CFD606805F14007854208BF6660A6
:1057A000404608F0E7FF384609F018F805F17800A0
:1057B00008F0FAFF05F19C0008F0F6FFBDE8F08163
:1057C000F6330100200D00201CB500902D48006824
:1057D000C00801D3022054E000992B481CC91CC00A
:1057E0001CC91CC00EC980E80E002849FF200860B3
:1057F0002749012008602848264902880968274867
:1058000002F090FB264800688047264942F22B00B0
:105810000860254942F60B30086024494FF4807037
:1058200008602349002008602249012008602249BD
:10583000012008602149012008602048006808F024
:105840006AFF01900F49086840F0040008601C4896
:105850001B49006820F07C5040F0345008600198EB
:1058600008F04CFE1748006806F072FE08F00BFFC7
:1058700008F01DFF06F084FE08F00AFF08F01CFF88
:1058800000201CBD10100940481C002000600C4086
:1058900054600C40581C0020561C002000000E4094
:1058A000641C002000500C4004500C4000100E40BE
:1058B00034500C4018500C4008600C4048600C40BC
:1058C000003009402C2009402DE9F0478046D8F8E7
:1058D0000450D8F8087091460E4608F073FF8246CF
:1058E0003868006B400A63D205F5827008F066FFE5
:1058F0000024EC772E6250466C6208F03BFF08F003
:1059000061FF2F4E3378824623B9022006F0D8FD7E
:1059100001203070504608F02DFF3968086B40F4C4
:10592000807008634046494606F0DCFAA862C0B9B8
:105930004046494605F072F9A878C8B9A96805F14A
:10594000CC0008F0C6FBE0B1AC621020E877394625
:10595000284603F053FB08F035FF8246307838B311
:1059600022E03968886B40F020008863A87810B185
:105970002046BDE8F087A96805F1CC0008F0A9FB36
:1059800010B9686ABDE8F0874046494605F046F917
:105990001020AC623946E877284603F02FFB08F068
:1059A00011FF8246307818B1022006F071FB347086
:1059B000504608F0DFFE4FF0FF30BDE8F087C046EC
:1059C0002E1E00202DE9FC4191EA03084CBF4FF048
:1059D00000484FF000084FEAC32545EA52554FEA08
:1059E000C2264FEA43077F0D11BF45F00045002155
:1059F0000020BDE8FC815FF4E06E1EF1FF0E7745EC
:105A000055D04FEAC12343EA50534FEAC0224FEA30
:105A10004104640D11BF43F0004300210020BDE8A4
:105A2000FC81744543D0E419A3FB0501A3FB06E701
:105A3000A2FB06631EEB030E57F1000751F10001B4
:105A4000A2FB05631EEB060E57F1000751F10001A2
:105A5000FF1851F10001C01951F100014CBF4FF482
:105A6000806E4FF4007E10EB0E0051F1000148BF34
:105A7000641C01D4400049415FF44077FF37E41BC8
:105A8000DEBF00210020BDE8FC8117F58067BC4225
:105A90000DD24FEAD02040EA41504FEA41014FEA8F
:105AA000113141EA045141EA0801BDE8FC810020BE
:105AB000FF21C900C91D090551EA0801BDE8FC81A3
:105AC0002DE9F84F00298346009106DD0246009833
:105AD0000021401E42F8041BFBD10098DFF8C8806B
:105AE000DFF8CC900028C8F800B012DD2F48009CE9
:105AF0000768002537F8020B38B1D9F80000AE006E
:105B00003158002088474BF80600641E05F1010556
:105B1000F0D1284F41460120D7F80080C880B8F165
:105B2000000F22DD4FF0000A00980127002817DD42
:105B3000ABF104060446002556F8040FB0F1FF3F10
:105B400004D0D9F800106958884730600021B0F1BE
:105B5000FF3F08BF01212D1D641E01EA0707EBD19D
:105B600037B90AF1010AC245DEDB04A007F002FFE3
:105B70000D4900200860BDE8F88FC0467864632EA8
:105B800072756E74696D652E537461727475703AB6
:105B900020276D6178506173736573272065786382
:105BA000656564656400C046E03A00202835010060
:105BB0002C350100243501002DE9F84F0F468246AF
:105BC00002F00106C2F34009C2F3800808F0FAFDB2
:105BD000334C03258346B7F1FF3F0AD1D4F8801038
:105BE000504608F0E3FA00280CBF276FD4F8807005
:105BF00005E039465046002205F0C8FF0746002F51
:105C000048D097F8370030F07F0042D0D4F88000B9
:105C1000B84212D0504639464A46434602F0E4FBA9
:105C2000002836D0207D012831D004282FD004F15F
:105C3000B400022108F0DCFD29E097F837100120BC
:105C4000002E00FA06F040EA010087F8370014BF82
:105C50001448154807F02EF9B8F1000F0ED097F848
:105C6000370040F0080087F837003E69C4F8446107
:105C700094F8500140F0010084F85001B9F1000F90
:105C800005D0216F50464A46434602F0ADFB8325BE
:105C900000E00425584608F06DFD2846BDE8F88F61
:105CA000200D002001000204010001047CB505461E
:105CB000084603F0EFFC364E02461821304606F047
:105CC00051FE07F0EBFC3449103909684C6840F28A
:105CD000FF32002380B22C2100903046A04708F00C
:105CE0004DFA1C210246304606F03CFE07F0C8FC87
:105CF00002461421304606F035FE07F0C5FE024686
:105D00001021304606F02EFE284603F08FFC024696
:105D10000C21304606F026FE284607F09DFE1D4C5D
:105D2000400040F020002070284607F0A1FE40F01F
:105D300010002070284607F0BFFA0246282130469E
:105D400006F010FE284607F0ABFE400040F0600071
:105D5000E070284607F0B0FEC00040F0800004F874
